:020000040800F2
:10000000580B00203902000879350008572D0008E8
:10001000ED3400080D0A0008F93F00080000000058
:10002000000000000000000000000000B53C0008D7
:10003000390B00080000000081380008B73C0008B8
:10004000530200085302000853020008530200083C
:10005000530200085302000853020008530200082C
:10006000530200085302000853020008530200081C
:10007000530200085302000853020008530200080C
:10008000530200085302000853020008210A000826
:10009000110A000853020008530200085302000826
:1000A000893D0008B93D0008A93D0008993D0008B8
:1000B00053020008530200085302000853020008CC
:1000C00053020008530200085302000853020008BC
:1000D00053020008530200085302000853020008AC
:1000E000530200085302000853020008530200089C
:1000F000530200085302000853020008530200088C
:10010000530200085302000853020008530200087B
:10011000530200085302000853020008530200086B
:10012000530200085302000853020008530200085B
:10013000530200085302000853020008530200084B
:10014000530200085302000853020008530200083B
:10015000530200085302000853020008530200082B
:10016000530200085302000853020008530200081B
:100170005302000853020008530200080000000068
:10018000530200085302000800F002F800F045F89E
:100190000AA090E8000C82448344AAF10107DA45E2
:1001A00001D100F03AF8AFF2090EBAE80F0013F0EF
:1001B000010F18BFFB1A43F001031847AC560000AB
:1001C000CC560000103A24BF78C878C1FAD852073C
:1001D00024BF30C830C144BF04680C6070470000C1
:1001E0000023002400250026103A28BF78C1FBD840
:1001F000520728BF30C148BF0B6070471FB505F0DC
:1002000022FB9DE8030000F085F900F0EDF81FBD2A
:1002100010B5002000F038F910BD00F0D8F91146F3
:10022000FFF7ECFF04F0AEFB00F010FA03B4FFF7A9
:10023000EFFF03BC00F048FA09488047094800472F
:10024000FEE7FEE7FEE7FEE7FEE7FEE7FEE7FEE786
:10025000FEE7FEE704480549054A064B70470000E3
:10026000753D00088901000858050020580B002042
:10027000580700205807002053EA020C00F069805C
:100280002DE9F04B4FF00006002B1FBFB3FA83F5AA
:1002900003FA05F424FA05F65E4012BF1643B2FADB
:1002A00082F502FA05F4C5F120051EBF22FA05FC0D
:1002B00044EA0C04203556EA044C4FEA144418BFB3
:1002C000641C4FF000084FF00009904271EB030CE2
:1002D00039D3002919BFB1FA81F701FA07F6B0FA4C
:1002E00080F700FA07F6C7F120071EBF20FA07FCC7
:1002F00046EA0C062037B6FBF4FCA7EB0507103FD7
:1003000007F01F0BCBF120060CFA0BFB2CFA06F6BC
:1003100044BFB3460026202FA4BF5E464FF0000B1B
:100320005BEA060C08BF4FF0010B19EB0B09ABFBA6
:10033000027C48EB0608C01B06FB02CC0BFB03CC7F
:1003400071EB0C01C1E70B46024641464846BDE849
:10035000F08B13B54FF000004FF00001AFF30080B9
:10036000BDE81C4070472DE9F041074615460E4692
:10037000102000F04FF804000AD06760C4E902655D
:1003800000F044F80168216004600020BDE8F081BD
:100390000120FBE74FF0000200B513469446964655
:1003A000203922BFA0E80C50A0E80C50B1F1200188
:1003B000BFF4F7AF090728BFA0E80C5048BF0CC036
:1003C0005DF804EB890028BF40F8042B08BF704794
:1003D00048BF20F8022B11F0804F18BF00F8012B06
:1003E000704770477047704770B5064C7C44064DA7
:1003F0007D4403E0206820448047241DAC42F9D1AD
:1004000070BD0000985400009854000000487047E8
:100410002C05002070B5064600F05CF8056806F172
:100420000B0020F00704B4429CBF002070BD2B4697
:100430006A68BAB11068A04210D304F1080188427A
:100440003CBF5068586007D351681019416011686B
:10045000091B016058601460101D70BD134652687E
:10046000002AE7D12146284600F040F80028DED1D6
:1004700070BD10B500F032F8006810BD10B504462C
:1004800000F02CF8046010BD2DE9F0410646FFF79E
:10049000BDFF8046454613E016B1E068B0420ED17C
:1004A00020682860D4E90101D8F800708847204608
:1004B00000F066F8D8F80000B842EBD100E025461D
:1004C0002C68002CE8D1BDE8F0810000004870479E
:1004D000F404002000487047FC04002000487047E6
:1004E000F4040020704770477047704738B50446E1
:1004F0000A4600206946AFF30080002808BF38BDD7
:1005000002460099204600F087F8012038BD0120FE
:1005100000F0A5B8F8B5AFF30080054600200C4602
:10052000102000BF0646A819A0420DD932466946E0
:100530000020AFF30080070008BF00F090F800989B
:10054000A04218BF0546C419FFF7C4FF056007465F
:10055000F01D20F007004619284600F00AF8B442C2
:1005600008BFF8BDA21B31463868BDE8F84000F06E
:1005700053B800210160C0E9011070471020704796
:1005800070B50446051FFFF7A5FF0068002C14BFD7
:10059000446870BD002C18BFAC423CBF2046646864
:1005A000F8D301680A18AA4218BF456003D12A6827
:1005B00005461144016028684119A1421CBF6C60C6
:1005C00070BD6168696021680844286070BD754627
:1005D000FFF77CFFAE4605006946534620F0070052
:1005E000854618B020B5FFF735FEBDE820404FF036
:1005F00000064FF000074FF000084FF0000B21F00D
:100600000701AC46ACE8C009ACE8C009ACE8C009D9
:10061000ACE8C0098D467047034640688C46002808
:1006200018BF88423CBF03464068F8D31868184496
:10063000884207D00CF1030020F00700001D411A8A
:10064000521A0146081D0A60FFF79ABF10B504460A
:10065000AFF300802046BDE81040FFF7E7BD10B5BE
:1006600000F00AF8BDE8104000F001B8704700281B
:1006700001D000F029B8704710B5012805D000213D
:1006800003A000F027F8012010BD09A1F8E7000041
:1006900053494752544D454D3A204F7574206F666B
:1006A0002068656170206D656D6F727900000000D3
:1006B0003A2048656170206D656D6F727920636FB7
:1006C000727275707465640001491820ABBEFEE754
:1006D0002600020070B505460C460A2000E06D1C9D
:1006E00000F011F835B128780028F8D102E0641C38
:1006F00000F009F814B120780028F8D1BDE8704066
:100700000A20AFF3008008B569468DF80000032089
:10071000ABBE08BD10B5044661004FF47A730A22DF
:10072000044801F0AFF810B16FF0050010BD0020D3
:10073000FCE70000340300200021017040214170DB
:100740000021418081808160C160704738B50446D6
:10075000002000906A460321204600F0A7F8BDF86B
:100760000010E06800FB01F5284638BD70B52DED9E
:10077000048B82B004460D46B0EE408AF0EE608AEB
:10078000B0EE419AF0EE619A002020702846FFF703
:10079000C1FF06462846FFF7BDFF20B1304602B034
:1007A000BDEC048B70BD01AAFE21204600F07EF84E
:1007B000064601AAFE21204600F078F808B130462E
:1007C000EDE7BDF8040045F24941884202D06FF0E0
:1007D0000100E4E701AAFF21204600F067F8064681
:1007E00001AAFF21204600F061F808B13046D6E7A3
:1007F000BDF8040042F26021884202D06FF002008E
:10080000CDE765704FF400420021204600F07EF8ED
:1008100006464FF400420021204600F077F808B168
:100820003046BCE744F2DF020021204600F06EF8BB
:10083000064644F2DF020021204600F067F808B1C6
:100840003046ACE7A21C0021204600F02FF80646F7
:10085000A21C0021204600F029F808B130469EE78E
:10086000608844F2DF01884202D06FF0030096E70F
:10087000B0EE491AF0EE691AB0EE480AF0EE680AD6
:10088000204600F061F80646B0EE491AF0EE691A0B
:10089000B0EE480AF0EE680A204600F055F808B1BC
:1008A00030467CE701202070002078E737B582B021
:1008B00005461446002020804FF47A700090687836
:1008C0004100012303AA104801F03EFA18B14FF08D
:1008D000FF3005B030BD4FF47A7000906878410069
:1008E000022301AA084801F0A9F810B14FF0FF3027
:1008F000EFE79DF8040020809DF80500217840EA8C
:10090000012020800020E4E7340300207CB5054668
:100910000E4614468DF80460200A8DF80500E0B2FA
:100920008DF806004FF47A70009068784100032338
:1009300001AA044801F008FA10B14FF0FF307CBD65
:100940000020FCE73403002010B52DED0C8B04468D
:10095000B0EE408AF0EE608AB0EE419AF0EE619A15
:100960009FED240B53EC102B51EC190B04F0C6FC3B
:100970009FED220B53EC102B04F0B8FA41EC1C0B4A
:10098000B0EE4C0AF0EE6C0A03F0BAFDB0EE40AAED
:10099000F0EE60AA9FED170B53EC102B51EC1A0BE5
:1009A00004F0A4FA53EC182B04F0A8FC41EC1C0B47
:1009B00053EC1C2B9FED130B51EC100B04F096FA2B
:1009C00041EC1B0B51EC1A0B04F0E8FBA06051EC5E
:1009D0001B0B04F013FCA080A06800EBC00101EB2E
:1009E0000010E060A28805212046FFF78FFFBDECD4
:1009F0000C8B10BD0000000080842E410000000020
:100A0000C0FFDF404968CBB91457753F00BFFEE710
:100A100010B5024800F0ABFA10BD00000C03002036
:100A200010B5024800F0A3FA10BD00000C0300202E
:100A300000B58BB0002006900790012008900020A0
:100A4000019002900390049005900120099001A963
:100A5000054800F02FF9044800F0D1FC02210248BB
:100A600000F06EF80BB000BD0C030020F8B5054691
:100A70000C4640F201212868884214D1A07940B286
:100A800000906079267940EA062003B2E078A678E3
:100A900040EA062002B26078267840EA06211C4827
:100AA00002F026FD32E040F203212868884215D189
:100AB000A07940B200906079267940EA062003B21E
:100AC000E078A67840EA062002B26078267840EA0C
:100AD00006210F48103002F00BFD17E02868B0F532
:100AE000A27F13D1607840B20090A078E67840EA07
:100AF000062003B22079667940EA062002B2A07986
:100B0000E67940EA0621034802F0C9FBF8BD00007F
:100B1000BC020020FC020020F8B504460D46164633
:100B20001F4633462A4621460248009703F09CFAA6
:100B3000F8BD00009C040020704772B600BFFEE7BD
:100B400010B5024692F82030012B01D0022B06D1BD
:100B500010684069084314686061002010BD506A45
:100B600040F4802050620120F8E7F0B504460D46BD
:100B70001E4694F8207020688368A86800B900E0D9
:100B800000BF012F01D0022F7DD103F0806030B96A
:100B900003F0006018B903F0805000287ED0C3F342
:100BA0000161012088403060A86860B9B5F800C0D4
:100BB000E86840EA4C5C206800F5C07000EB01106A
:100BC000C0F800C00FE0D5E901C040EACC00D5F87C
:100BD0000CC040EA0C00D4F800C00CF5C07C0CEB53
:100BE000011CCCF80000D5F810C0206800F5C070DA
:100BF00000EB0110C0F804C0287D01280ED1206848
:100C000000F5C07000EB0110406840F4807C206863
:100C100000F5C07000EB0110C0F804C0D0790006E8
:100C200092F806C040EA0C4092F805C040EA0C2059
:100C300092F804C040EA0C00D4F800C00CF5C07C67
:100C40000CEB011CCCF80C00D078000692F802C026
:100C500040EA0C4092F801C040EA0C2092F800C033
:100C600040EA0C00D4F800C00CF5C07C0CEB011C71
:100C7000CCF80800206800F5C07000EB0110006897
:100C800040F0010C01E00FE008E0206800F5C070C2
:100C900000EB0110C0F800C00020F0BD606A40F415
:100CA000001060620120F8E7606A40F48020606212
:100CB0000120F2E7F0B504460A46216894F8205076
:100CC000012D01D0022D7ED1424901F50071086845
:100CD00040F001000860086820F47C500860086853
:100CE000566A40EA06200860107D00F01F060120C9
:100CF00000FA06F3C8699843C861A1F50071D0698C
:100D0000C8B9D1F80C029843C1F80C02908880B29F
:100D1000968940EA064601F51070576940F8376039
:100D2000108880B2168940EA064601F510705769AE
:100D300000EBC7004660D069012819D1D1F80C0238
:100D40001843C1F80C02908880B2168840EA064623
:100D500001F51070576940F83760908980B21689A4
:100D600040EA064601F51070576900EBC70046607F
:100D7000906928B9D1F804029843C1F8040204E04C
:100D8000D1F804021843C1F80402106928B9D1F857
:100D900014029843C1F8140204E0D1F81402184375
:100DA000C1F81402106A012804D1D1F81C021843BA
:100DB000C1F81C02D1F8000220F00100C1F80002C5
:100DC0000020F0BDFFE7606A40F4802060620120EF
:100DD000F7E7000000640040704770B5044694F8DF
:100DE0002050012D01D0022D7DD151B92068C0685D
:100DF00000F0030080B9606A40F4001060620120D6
:100E000070BD2068006900F0030028B9606A40F4F2
:100E1000001060620120F3E7206800F5D87000EB55
:100E20000110006800F004009060906840B92068EC
:100E300000F5D87000EB01100068400D106007E06D
:100E4000206800F5D87000EB01100068C008506001
:100E5000206800F5D87000EB0110006800F0020077
:100E6000D060206800F5D87000EB0110406800F0F9
:100E70000F00082802D30820106108E0206800F560
:100E8000D87000EB0110406800F00F00106120687E
:100E900000F5D87000EB0110406800F47F40000AB4
:100EA0009061206800F5D87000EB01104068000CDC
:100EB0005061206800F5D87000EB01108068187050
:100EC000206800F5D87000EB0110806800F47F40C6
:100ED000000A5870206800F5D87000EB0110806897
:100EE00000F47F0000E03CE0000C9870206800F502
:100EF000D87000EB01108068000ED870206800F5F3
:100F0000D87000EB0110C0681871206800F5D87027
:100F100000EB0110C06800F47F40000A587120689F
:100F200000F5D87000EB0110C06800F47F00000CE1
:100F30009871206800F5D87000EB0110C068000EB1
:100F4000D87131B92068C06840F020002668F06090
:100F500005E02068006940F020002668306100202C
:100F60004EE7606A40F480206062012048E72DE986
:100F7000F05F04460025206846692068D0F8049098
:100F8000206887682068D0F80CA02068D0F810B0DE
:100F90002068D0F8188006F00100002855D007F02E
:100FA0000100C0B101202168886007F0020018B17B
:100FB000204600F054FA0EE007F0040010B145F4AA
:100FC000006508E007F0080010B145F4805502E024
:100FD000204600F043FA07F48070C8B14FF48070E7
:100FE0002168886007F4007018B1204600F039FAD3
:100FF0000EE007F4806010B145F4005508E007F4F6
:10100000006010B145F4804502E0204600F028FA67
:1010100007F48030C8B14FF480302168886007F44D
:10102000003018B1204600F01EFA0EE007F48020D0
:1010300010B145F4004508E007F4002010B145F474
:10104000803502E0204600F00DFA06F0080038B1C5
:101050000AF0100020B145F4007510202168C86026
:1010600006F0040040B10AF0080028B10820216809
:10107000C860204600F0B0F906F0020038B12068E0
:10108000C06800F0030010B1204600F0A6F906F099
:10109000400038B10BF0100020B145F480651020FD
:1010A0002168086106F0200040B10BF0080028B16B
:1010B000082021680861204600F09EF906F0100023
:1010C00038B12068006900F0030010B1204600F03C
:1010D00094F906F4003040B109F0100028B1102056
:1010E00021684860204600F089F906F4803040B15C
:1010F00009F0080028B1082021684860204600F067
:10110000B3F906F4004088B309F0040078B306F49C
:10111000807020B108F0010008B145F0010506F427
:10112000007020B108F0020008B145F0020506F495
:10113000806020B108F0040008B145F0040506F411
:101140000060A0B108F0700088B108F0700040287D
:1011500017D006DC10280BD020280CD0302819D14D
:101160000CE0502810D0602814D110E01DE019E0E8
:1011700045F008050FE045F010050CE045F02005AE
:1011800009E045F0400506E045F0800503E045F440
:10119000807500E000BF00BF2068806920F070000B
:1011A000216888610420216848602DB1606A284365
:1011B00060622046FFF710FEBDE8F09F70B5044660
:1011C0000CB9012070BD94F8200010B9204600F041
:1011D000AFF82068006840F001002168086000F066
:1011E00063FA05460DE000F05FFA401B0A2808D9B3
:1011F000606A40F400306062052084F8200001201D
:10120000E0E72068406800F001000028EBD020688B
:10121000006820F002002168086000F045FA0546E9
:101220000DE000F041FA401B0A2808D9606A40F43A
:1012300000306062052084F820000120C2E72068A9
:10124000406800F002000028EBD1207E012806D182
:101250002068006840F080002168086005E0206890
:10126000006820F0800021680860607E012806D1B7
:101270002068006840F040002168086005E02068B0
:10128000006820F0400021680860A07E012806D197
:101290002068006840F020002168086005E02068B0
:1012A000006820F0200021680860E07E012806D157
:1012B0002068006820F010002168086005E02068C0
:1012C000006840F0100021680860207F012806D1E6
:1012D0002068006840F008002168086005E0206888
:1012E000006820F0080021680860607F012806D1AE
:1012F0002068006840F004002168086005E020686C
:10130000006820F0040021680860D4E90201084365
:1013100021690843616908436168491E08432168DF
:10132000C86100206062012084F82000002049E7A5
:1013300010B586B00446142101A8FFF72BF8234905
:10134000206888423FD100BF0020009020480068FC
:1013500040F000701E4908600846006800F0007008
:10136000009000BF00BF00BF002000901848103858
:10137000006840F008001649103908600846006807
:1013800000F00800009000BF00BF03200190022081
:10139000029000200390032004900920059001A9E9
:1013A0000C4800F077F800221146132000F050FEA0
:1013B000132000F039FE00221146142000F048FEF0
:1013C000142000F031FE06B010BD000000640040A3
:1013D00040380240000C0240704710B58AB0044605
:1013E00001AB03AA00212046FFF7F7FC01A903A8DF
:1013F000FFF73CFB0AB010BD70477047704770B5EF
:10140000044694F82000012822D1022084F820000C
:101410002068006820F001002168086000F044F9AD
:1014200005460DE000F040F9401B0A2808D9606A23
:1014300040F400306062052084F82000012070BD77
:101440002068406800F001000028EBD16062F6E7F8
:10145000606A40F4002060620120F0E77047704746
:1014600070477047704770477047000070B504467A
:1014700000F01AF906462546681C10B104480078A9
:10148000054400BF00F010F9801BA842FAD370BDDC
:10149000F4000020F8B502460B4600250024002089
:1014A0000021D6E0012606FA01F51E6806EA0504C9
:1014B000AC4274D11E7906F00306012E04D01E79C9
:1014C00006F00306022E13D190684F000326BE409B
:1014D000B0434F00DE68BE40304390605068012644
:1014E0008E40B0431E79C6F300168E4030435060E4
:1014F0001E7906F00306032E09D0D0684F0003269C
:10150000BE40B0434F009E68BE403043D0601E795D
:1015100006F00306022E13D1CF0802F1200656F87A
:1015200027004E07F70E0F26BE40B0434F07FF0EB1
:101530001E69BE403043CF0802F1200646F827005E
:1015400010684F000326BE40B0431E7906F0030624
:101550004F00BE40304310605E6806F44036002EF7
:1015600076D000BF002600963C4E366846F4804692
:101570003A4F3E603E46366806F48046009600BF0D
:1015800000BF374E8F0856F827008E07370F0F26FB
:10159000BE40B043334EB24202D1002624E057E0B1
:1015A000314EB24201D101261EE0304EB24201D18D
:1015B000022619E02E4EB24201D1032614E02D4E30
:1015C000B24201D104260FE02B4EB24201D10526D2
:1015D0000AE02A4EB24201D1062605E0284EB24268
:1015E00001D1072600E008268F073F0FBE40304399
:1015F0001B4E8F0846F82700224E3068A0435E68D5
:1016000006F4801606B120431E4E3060361D306849
:10161000A0435E6806F4001606B12043194E361D3D
:101620003060184E361F3068A0435E6806F40036FE
:1016300006B12043134E361F3060361F3068A0437A
:101640005E6806F4803606B120430E4E083E3060D8
:10165000491C1029FFF426AFF8BD000044380240B1
:101660000838014000000240000402400008024027
:10167000000C02400010024000140240001802401A
:10168000001C0240083C014010B5426921EA0203F7
:1016900002EA010443EA0443836110BD0AB1816197
:1016A00001E00B0483617047014800687047000047
:1016B000EC00002070B504460CB9012070BD94F810
:1016C0003D0028B9002084F83C00204600F0F4FBDF
:1016D000242084F83D002068006820F00100216883
:1016E00008602068006840F40040216808602068B5
:1016F000006820F400402168086000F0C3FD054642
:101700005C496068884206D85B48854201D2012066
:1017100007E0002005E05948854201D2012000E0A1
:101720000020012800D1C9E75548B5FBF0F6206834
:10173000406820F03F003043216848604D496068B0
:10174000884201D8701C07E04FF4967070434FF444
:101750007A71B0FBF1F0401C2168096A21F03F0169
:1017600008432168086243496068884214D8681EAB
:1017700061684900B0FBF1F0401CC0F30B00042885
:1017800001D204203DE0681E61684900B0FBF1F021
:10179000401CC0F30B0034E0A06838B9681E6168D3
:1017A00001EB4101B0FBF1F0401C0AE0681E6168EA
:1017B00001EBC10202EB0111B0FBF1F0401C40F45F
:1017C0008040C0F30B0008B901201AE0A06848B9B6
:1017D000681E616801EB4101B0FBF1F0401CC0F3F1
:1017E0000B000CE0681E616801EBC10202EB011105
:1017F000B0FBF1F0401CC0F30B0040F4804040F41B
:1018000000402168C9694CF6FF7291430843216882
:10181000C861D4E9070108432168096821F0C001C3
:10182000084321680860D4E90310084321688968E7
:1018300048F2FF329143084321688860D4E90501EA
:1018400008432168C96821F0FF0108432168C86086
:101850002068006840F001002168086000202064D2
:10186000202084F83D000020206384F83E0000BF63
:1018700024E70000A086010080841E0000093D00CE
:1018800040420F002DE9F84F04460F4690461E4691
:10189000FFF70AFF05464FF0000994F83D002028A5
:1018A0007ED11923012263492046009501F0A3FB54
:1018B00010B10220BDE8F88F00BF94F83C00012869
:1018C00001D10220F6E7012084F83C0000BF206827
:1018D000006800F0010028B92068006840F00100AD
:1018E000216808602068006820F4006021680860B2
:1018F000242084F83D00002020644F48E06200BFAF
:101900002068006840F48070216808603346002237
:101910004FF001112046009501F06DFB58B1206891
:10192000006800F48070B0F5807F02D14FF4007041
:1019300020640320BEE707F0FE0021680861FFF77E
:10194000B3FE054620684069C0F3400A206840693C
:10195000C0F3802B10E0FFF7A7FE401BB04200D879
:1019600016B9A02084F83D0020684069C0F3400A01
:1019700020684069C0F3802B94F83D00A02805D072
:10198000BAF1000F02D1BBF1000FE4D0202084F89F
:101990003D0020684069C0F3400028B3206800E0A3
:1019A00045E0006840F400702168086000BF002036
:1019B000009020684069009020688069009000BF16
:1019C00000BF192301221B492046009501F013FB9B
:1019D00008B101206EE7202084F83D0000BF002000
:1019E00084F83C0000BF65E72068006840F40070A0
:1019F000216808606FF48060216848611923012222
:101A00000C492046009501F0F6FA08B1012051E793
:101A100009F10109C145FFF473AF202084F83D00AE
:101A200000BF002084F83C0000BF012042E70220F4
:101A300040E70000020010000000FFFF2DE9F8431E
:101A40000446894617469846089EFFF72DFE054630
:101A500094F83D0020287DD119230122B749204662
:101A6000009501F0C8FA10B10220BDE8F88300BF6C
:101A700094F83C00012801D10220F6E7012084F807
:101A80003C0000BF2068006800F0010028B9206811
:101A9000006840F00100216808602068006820F4B8
:101AA000006021680860222084F83D00102084F83E
:101AB0003E00002020646762A4F82A80608D2085A3
:101AC0009F48E0622B4632464946204601F064F9C1
:101AD00008B10120C9E7208D88B900BF002000901F
:101AE00020684069009020688069009000BF00BFB6
:101AF0002068006840F400702168086047E0208D8D
:101B0000012817D12068006820F4806021680860EF
:101B100000BF002000902068406900902068806924
:101B2000009000BF00BF2068006840F4007021688A
:101B300008602CE0208D022818D12068006820F46D
:101B40008060216808602068006840F400602168B7
:101B5000086000E0EFE000BF0020009020684069CE
:101B6000009020688069009000BF10E02068006845
:101B700040F480602168086000BF00200090206869
:101B80004069009020688069009000BF00BFC3E0FA
:101B9000208D03287ED8208D012815D12A46314674
:101BA000204601F004FB08B101205EE720680069CF
:101BB000616A0870606A401C6062208D401E20854A
:101BC000608D401E6085A7E0208D02282AD1334613
:101BD00000225C492046009501F00DFA08B1012071
:101BE00043E72068006840F40070216808602068BE
:101BF0000069616A0870606A401C6062208D401E46
:101C00002085608D401E608520680069616A0870CB
:101C1000606A401C6062208D401E2085608D401EE1
:101C2000608579E03346002246492046009501F060
:101C3000E2F908B1012018E72068006820F480600C
:101C40002168086020680069616A0870606A401C49
:101C50006062208D401E2085608D401E6085334669
:101C6000002238492046009501F0C5F908B101204D
:101C7000FBE62068006840F4007021680860206876
:101C80000069616A0870606A401C6062208D401EB5
:101C9000208500E010E0608D401E608520680069AE
:101CA000616A0870606A401C6062208D401E208559
:101CB000608D401E60852FE02A463146204601F0A7
:101CC00076FA08B10120D0E620680069616A0870E0
:101CD000606A401C6062208D401E2085608D401E21
:101CE000608520684069C0F38000A8B1208D03287A
:101CF00005D12068006820F48060216808602068B1
:101D00000069616A0870606A401C6062208D401E34
:101D10002085608D401E6085208D00287FF438AFBF
:101D2000202084F83D00002084F83E0000BF84F8A5
:101D30003C0000BF99E6022097E600000200100078
:101D40000000FFFF040001002DE9F8430446894626
:101D500016461F46DDF82080FFF7A6FC054694F8DE
:101D60003D0020287ED119230122514920460095AB
:101D700001F041F910B10220BDE8F88300BF94F8EA
:101D80003C00012801D10220F6E7012084F83C0044
:101D900000BF2068006800F0010028B920680068D2
:101DA00040F00100216808602068006820F40060AD
:101DB00021680860212084F83D00102084F83E004E
:101DC0000020206466626785608D20853948E06266
:101DD0002B4642464946204601F07AF808B10120D8
:101DE000CAE700BF0020009020684069009020688A
:101DF0008069009000BF00BF44E02A46414620466B
:101E000001F01AFA50B1206C042805D1206800684E
:101E100040F40070216808600120ADE7606A007836
:101E200021680861606A401C6062608D401E6085A8
:101E3000208D401E208520684069C0F3800070B16D
:101E4000208D60B1606A007821680861606A401C7A
:101E50006062608D401E6085208D401E20852A4670
:101E6000414600E022E0204601F092F850B1206C9B
:101E7000042805D12068006840F4007021680860DB
:101E8000012079E7208D0028B7D12068006840F450
:101E9000007021680860202084F83D00002084F84C
:101EA0003E0000BF84F83C0000BF65E7022063E706
:101EB000020010000000FFFF10B586B00446142198
:101EC00001A8FEF767FA1B49206888422FD100BF9E
:101ED000002000901848006840F020001649086073
:101EE0000846006800F02000009000BF00BF0320FB
:101EF00001901220029000200390032004900420FF
:101F0000059001A90D48FFF7C5FA00BF0020009019
:101F100009481030006840F480000749103108601B
:101F20000846006800F48000009000BF00BF06B0C3
:101F300010BD00000058004030380240001402403C
:101F4000034800680349097808440149086070475C
:101F5000EC000020F400002010B50D48006840F4AB
:101F600000700B4908600846006840F48060086013
:101F70000846006840F480700860032000F0A6F86E
:101F80000F2000F007F800F02BF8002010BD000033
:101F9000003C024070B504460E4800784FF47A7158
:101FA000B1FBF0F00C490968B1FBF0F5284600F0F0
:101FB0001FFC08B1012070BD102C07D20022214661
:101FC000501E00F045F80548046001E00120F2E7EA
:101FD0000020F0E7F4000020F8000020F0000020CE
:101FE00008B500BF002000900E48006840F4804013
:101FF0000C4908600846006800F48040009000BF6B
:1020000000BF00BF00200090081F006840F0805013
:10201000091F08600846006800F08050009000BF6B
:1020200000BF08BD443802400146084600280DDBC9
:1020300000BF00BF00F01F0301229A4043099B002C
:1020400003F1E023C3F8002100BF00BF00BF7047C9
:102050002DE9F05F80460D461646002702F032FA61
:10206000074639462A46334601F00700C0F1070A01
:10207000BAF1040F02D94FF0040A01E0C0F1070AD7
:10208000D14600F1040ABAF1070F02D24FF0000A5C
:1020900001E0A0F1030AD4464FF0010A0AFA09FA56
:1020A000AAF1010A0AEA020A0AFA0CFA4FF0010B35
:1020B0000BFA0CFBABF1010B0BEA030B4AEA0B0426
:1020C0002146404602F006FABDE8F09F00BF00F04E
:1020D0000702064B19684FF6FF031940044B0B43E8
:1020E00043EA0221014B196000BF70470CED00E08C
:1020F0000000FA0570B504460D460CB9012070BD0C
:102100005848006800F00700A84209D255490D70F0
:102110000846006800F00700A84201D00120EEE761
:10212000207800F0020002281DD1207800F0040081
:10213000042805D14C48006840F4E0504A49086042
:10214000207800F00800082805D14748006840F4CE
:102150006040454908604448006820F0F000A168EC
:10216000084341490860207800F00100A8B3606886
:10217000012807D13C4808380068C0F34040B8B98E
:102180000120BCE76068022802D06068032807D1FC
:10219000354808380068C0F3406048B90120AEE710
:1021A000314808380068C0F3400008B90120A6E7AC
:1021B0002D48006820F00300616808432A49086040
:1021C000FFF772FA064609E0FFF76EFA801B41F24C
:1021D0008831884202D9032091E707E0224800684D
:1021E00000F00C006168B0EB810FEDD11D48006874
:1021F00000F00700A84209D91A490D700846006886
:1022000000F00700A84201D0012078E7207800F014
:102210000400042807D11448006820F4E050E16865
:10222000084311490860207800F00800082808D108
:102230000D48006820F46040216940EAC1000A4965
:10224000086000F02FF808490968C1F30311074A34
:10225000515CC8400649086006480068FFF79AFECE
:1022600000204CE7003C024008380240505800086B
:10227000F8000020F00000200148006870470000CE
:10228000F800002000B5FFF7F7FF04490968C1F323
:102290008221034A515CC84000BD0000083802405A
:1022A000605800082DE9F047002400250026A146CB
:1022B0002548006800F00C0020B1042805D008284B
:1022C0003AD105E0DFF8849039E0DFF8849036E019
:1022D0001D48001F006800F03F041B48001F0068F5
:1022E00000F4800078B11A481749091F0968C1F342
:1022F0008811A0FB01700146224600233846FDF7F5
:10230000BBFF05460EE011480F49091F0968C1F3DC
:102310008811A0FB01700146224600233846FDF7D4
:10232000ABFF05460848001F0068C0F30140401C91
:102330004600B5FBF6F902E0DFF8109000BF00BFE1
:102340004846BDE8F0870000083802400024F40049
:10235000001BB700F8B504460CB90120F8BD207881
:1023600000F00100002874D0F948006800F00C006B
:1023700004280DD0F648006800F00C00082813D19E
:10238000F348001F006800F48000B0F5800F0BD107
:10239000EF4808380068C0F34040002859D0606812
:1023A000002856D10120D9E700BF6068B0F5803F12
:1023B00008D1E7480838006840F48030E44908391B
:1023C00008601EE06068B0F5A02F0DD1E048083825
:1023D000006840F48020DE4908390860084600683B
:1023E00040F4803008600CE0D9480838006820F4D8
:1023F0008030D749083908600846006820F48020FA
:10240000086000BF606890B1FFF74EF9054606E02E
:10241000FFF74AF9401B642801D903209EE7CC4806
:1024200008380068C0F340400028F1D011E0FFF701
:102430003BF9054606E0FFF737F9401B642801D950
:1024400003208BE7C24808380068C0F340400028EA
:10245000F1D1207800F0020002285FD1BC4800686A
:1024600000F00C0058B1BA48006800F00C000828D1
:102470001CD1B748001F006800F48000B0B9B44810
:1024800008380068C0F3400020B1E068012801D09E
:10249000012063E7AE480838006820F0F8002169A1
:1024A00040EAC100AA490839086037E0E06800B393
:1024B0000120A8490860FFF7F7F8054606E0FFF796
:1024C000F3F8401B022801D9032047E7A048083849
:1024D0000068C0F340000028F1D09D48083800682B
:1024E00020F0F800216940EAC100994908390860E4
:1024F00014E0002097490860FFF7D6F8054606E08B
:10250000FFF7D2F8401B022801D9032026E79048A4
:1025100008380068C0F340000028F1D1207800F0AE
:10252000080008282CD16069A8B101208A490860F8
:10253000FFF7BAF8054606E0FFF7B6F8401B022899
:1025400001D903200AE782486C300068C0F34000DC
:102550000028F1D014E000207F490860FFF7A4F8BC
:10256000054606E0FFF7A0F8401B022801D903202A
:10257000F4E677486C300068C0F340000028F1D1E1
:10258000207800F00400042870D10027704838300B
:10259000006800F0805090B900BF002000906C48A7
:1025A0003830006840F0805069493831086008468A
:1025B000006800F08050009000BF00BF012767480E
:1025C000006800F48070B0B96448006840F480701E
:1025D00062490860FFF768F8054606E0FFF764F80F
:1025E000401B022801D90320B8E65C48006800F4CB
:1025F00080700028F2D000BFA068012808D154489C
:102600006830006840F001005149683108601DE001
:10261000A06805280DD14E486830006840F00400DD
:102620004B49683108600846006840F001000860C6
:102630000CE047486830006820F0010044496831E8
:1026400008600846006820F00400086000BFA06829
:10265000A8B1FFF729F8054609E0FFF725F8401B68
:1026600041F28831884202D9032077E626E03848D3
:1026700068300068C0F340000028EED013E0FFF798
:1026800013F8054608E0FFF70FF8401B41F28831C8
:10269000884201D9032061E62D4868300068C0F304
:1026A00040000028EFD1012F07D1294838300068B9
:1026B00020F0805026493831086000BFA06900280A
:1026C00045D02348006800F00C0008285DD0A069C0
:1026D000022845D100201F490866FEF7E5FF0546A0
:1026E00006E0FEF7E1FF401B022801D9032035E692
:1026F000174808380068C0F340600028F1D1D4E9D9
:1027000007010843616A40EA81110122A06AC2EB15
:10271000500041EA00412C20005D41EA00600C4974
:10272000091F086001200B490866FEF7BDFF05463A
:1027300006E0FEF7B9FF401B022801D903200DE691
:10274000034808380068C0F340600028F1D049E031
:102750000838024000004742800E474200700040A7
:10276000002021490866FEF79FFF054606E0FEF7B8
:102770009BFF401B022801D90320EFE51B4800689E
:10278000C0F340600028F2D12CE0A069012800D1FC
:10279000E4E51648001D0668A069012820D006F46B
:1027A0008001E06981421BD106F03F01206A81422D
:1027B00016D147F6C0703040616AB0EB811F0FD16F
:1027C00006F440310122A06AC2EB5000B1EB004F89
:1027D00006D106F070612C20005DB1EB006F01D0D6
:1027E0000120BBE50020B9E5000047420038024067
:1027F00070B504462546681EB0F1807F01D30120E4
:102800000FE0681E4FF0E02148610F214FF0FF30CC
:1028100001F060FE00204FF0E02188610720086190
:10282000002070BD7047704730B502460B4600BFB0
:1028300092F83C00012801D1022030BD012082F82D
:102840003C0000BF022082F83D0010684468106818
:10285000816824F070041868044310684460184DBF
:102860001068A8421BD01068B0F1804F17D0154DEA
:102870001068A84213D0144D1068A8420FD0134D11
:102880001068A8420BD0124D1068A84207D0114D15
:102890001068A84203D0104D1068A84205D121F05D
:1028A00080015868014310688160012082F83D0072
:1028B00000BF002082F83C0000BF00BFBDE7000061
:1028C000000001400004004000080040000C0040EF
:1028D00000040140004001400018004010B50446CB
:1028E0000CB9012010BD94F83D0028B9002084F8EF
:1028F0003C00204600F026F8022084F83D00211D0F
:10290000206801F061FA012084F8460000BF84F8D5
:102910003E0001213F200155402001554120015535
:1029200000BF00BF012084F842004320015544202D
:1029300001554520015500BF012084F83D000020CD
:10294000D0E7000038B504461A49206888422FD1E4
:1029500000BF002000901848006840F001001649B0
:1029600008600846006800F00100009000BF00BF4A
:10297000002211461820FFF76BFB1820FFF754FBCD
:10298000002211461920FFF763FB1920FFF74CFBCB
:10299000002211461A20FFF75BFB1A20FFF744FBC9
:1029A000002211461B20FFF753FB1B20FFF73CFBC7
:1029B00038BD00000000014044380240014691F853
:1029C0003D00012801D001207047022081F83D0020
:1029D0000868C06840F001000B68D8601A4B0868AE
:1029E00098421BD00868B0F1804F17D0174B086889
:1029F000984213D0164B086898420FD0154B0868C0
:102A000098420BD0144B0868984207D0134B0868C3
:102A1000984203D0124B086898420CD1086880682D
:102A200000F00702062A0CD00868006840F0010098
:102A30000B68186005E00868006840F001000B684A
:102A400018600020C0E700000000014000040040C2
:102A500000080040000C004000040140004001401C
:102A6000001800402DE9F04104460D46002700BF44
:102A700094F83C00012802D10220BDE8F081012039
:102A800084F83C0000BF022084F83D00206886687E
:102A900026F0770626F47F4620688660286850284E
:102AA00033D00CDC202850D004DC00284BD0102878
:102AB00051D149E0302849D040284CD139E0602834
:102AC0002DD0702807D0B0F5805F03D0B0F5005F3F
:102AD00041D10DE041E0D5E902136A68206801F0B8
:102AE000E7F92068866846F077062068866034E05B
:102AF000D5E902136A68206801F0DAF92068806875
:102B000040F480402168886027E0EA6869682068AE
:102B100001F0E2F95021206801F0D5F91DE0EA68E2
:102B20006968206801F0EBF96021206801F0CBF9B9
:102B300013E0EA686968206801F0CEF94021206856
:102B400001F0C1F909E000BF00BF00BF296820689B
:102B500001F0B9F901E0012700BF00BF012084F8AE
:102B60003D0000BF002084F83C0000BF384684E7E9
:102B7000704770B504462068C5682068066906F08D
:102B80000200022819D105F00200022815D1401FC9
:102B900021680861012020772068806900F0030027
:102BA00018B12046FFF7E4FF05E0204600F097F853
:102BB000204600F095F80020207706F00400042855
:102BC00019D105F00400042815D1C043216808611B
:102BD000022020772068806900F4407018B12046F8
:102BE000FFF7C6FF05E0204600F079F8204600F028
:102BF00077F80020207706F00800082819D105F0A2
:102C00000800082815D1C0432168086104202077F6
:102C10002068C06900F0030018B12046FFF7A8FF44
:102C200005E0204600F05BF8204600F059F800204F
:102C3000207706F01000102819D105F01000102898
:102C400015D1C04321680861082020772068C06939
:102C500000F4407018B12046FFF78AFF05E02046D7
:102C600000F03DF8204600F03BF80020207706F009
:102C7000010048B105F0010030B16FF0010021689A
:102C80000861204600F02EF806F08000802809D167
:102C900005F08000802805D1C043216808612046E6
:102CA000FFF7C0FD06F04000402809D105F04000C4
:102CB000402805D1C04321680861204600F04AF849
:102CC00006F02000202809D105F02000202805D199
:102CD000C043216808612046FFF7A5FD70BD70471D
:102CE0007047000010B5044615492068884226D177
:102CF0001448007820B9C9141348FEF7C5FC07E052
:102D000010480078012803D101031048FEF7BCFCED
:102D10000F480078012801D101F0DEFD0C48007851
:102D200008B901F09DFD0A480078022801D101F0A0
:102D3000D1FD07480078032801D101F0C1FD10BD85
:102D4000000001401000002000100240001C024062
:102D50000C000020704700BFFEE70146086840698C
:102D6000C0F38020B0B16FF480600A685061002029
:102D70000863202081F83D00002081F83E00086CA7
:102D800040F00400086400BF002081F83C0000BF50
:102D9000012070470020FCE72DE9F84304460D466A
:102DA00090461E46E76A2068006840F4806021680B
:102DB0000860082F04D0012F02D017F5803F06D1FC
:102DC0002068006840F480702168086008E0206B8B
:102DD000112805D12068006840F4807021680860DF
:102DE000434600224FF001112046009600F003F9FF
:102DF00060B12068006800F48070B0F5807F02D177
:102E00004FF4007020640320BDE8F8832069B0F51A
:102E1000804F05D1E8B240F001002168086149E027
:102E200005F44070F02141EAE01021680861334662
:102E300042462649204600F03DF908B10120E3E76B
:102E4000E8B221680861334642462049891F20467E
:102E500000F030F908B10120D6E700BF0020009053
:102E600020684069009020688069009000BF00BF22
:102E70002068006840F480702168086043460022A2
:102E80004FF001112046009600F0B5F858B12068C7
:102E9000006800F48070B0F5807F02D14FF40070BC
:102EA00020640320B0E705F44070F12141EAE0100E
:102EB00021680861334642460449891F204600F0D4
:102EC000F9F808B101209FE700209DE70800010004
:102ED0002DE9F84304460D4617469846E66A082E43
:102EE00004D0012E02D016F5803F06D1206800687C
:102EF00040F480702168086008E0206B122805D13A
:102F00002068006840F48070216808603B46002219
:102F10004FF001112046CDF8008000F06CF860B150
:102F20002068006800F48070B0F5807F02D14FF413
:102F3000007020640320BDE8F8832069B0F5804F5D
:102F400004D105F0FE002168086112E005F440702C
:102F5000F02141EAE0102168086143463A460B49F6
:102F6000204600F0A7F808B10120E4E7E8B22168A4
:102F7000086143463A460549891F204600F09AF801
:102F800008B10120D7E70020D5E7000008000100C4
:102F900070B504460D46164625E02046FFF7DDFED7
:102FA00008B1012070BD681CE8B1FEF77DFB801BF5
:102FB000A84200D8BDB920684069C0F3800090B92C
:102FC00000202063202084F83D00002084F83E008B
:102FD000206C40F02000206400BF002084F83C00FA
:102FE00000BF0120DEE720684069C0F380000028B0
:102FF000D3D00020D6E72DE9F04104460D46174610
:103000001E46DDF8188038E0701CA8B3FEF74CFBB4
:10301000A0EB0800B04200D876BBC5F307400128FA
:103020000AD120684069A9B20840A9B2884201D1FA
:1030300001200BE0002009E020688069A9B2084067
:10304000A9B2884201D1012000E00020B84214D189
:1030500000202063202084F83D00002084F83E00FA
:10306000206C40F02000206400BF002084F83C0069
:1030700000BF0120BDE8F081FFE7C5F3074001284C
:103080000AD120684069A9B20840A9B2884201D19A
:1030900001200BE0002009E020688069A9B2084007
:1030A000A9B2884201D1012000E00020B842ABD093
:1030B0000020DFE72DE9F04104460D4616461F4685
:1030C00058E020684069C0F38020E8B120680068BB
:1030D00040F40070216808606FF4806021684861E6
:1030E00000202063202084F83D00002084F83E006A
:1030F000206C40F00400206400BF002084F83C00F5
:1031000000BF0120BDE8F081701C90B3FEF7CCFA3F
:10311000C01BB04200D866BBC5F3074001280AD1E6
:1031200020684069A9B20840A9B2884201D10120B3
:103130000BE0002009E020688069A9B20840A9B22C
:10314000884201D1012000E0002090B900202063D6
:10315000202084F83D00002084F83E00206C40F0E0
:103160002000206400BF002084F83C0000BF012044
:10317000C8E7FFE7C5F3074001280AD12068406986
:10318000A9B20840A9B2884201D101200BE0002079
:1031900009E020688069A9B20840A9B2884201D13B
:1031A000012000E0002000288BD00020AAE770B5A5
:1031B00004460D46164637E020684069C0F300100B
:1031C000A0B16FF01000216848610020206320202A
:1031D00084F83D00002084F83E00206C206400BF8D
:1031E000002084F83C0000BF012070BDFEF75CFAAF
:1031F000801BA84200D8BDB920684069C0F3801088
:1032000090B900202063202084F83D00002084F83D
:103210003E00206C40F02000206400BF002084F8B5
:103220003C0000BF0120E0E720684069C0F3801047
:103230000028C1D00020D8E770B504460D461646D8
:1032400025E02046FFF789FD08B1012070BD681C0C
:10325000E8B1FEF729FA801BA84200D8BDB9206862
:103260004069C0F3C01090B900202063202084F88A
:103270003D00002084F83E00206C40F020002064D7
:1032800000BF002084F83C0000BF0120DEE720687A
:103290004069C0F3C0100028D3D00020D6E730B575
:1032A000039CC5880581C18002804380047130BDC4
:1032B00010B50F480F4908600620486000210D48EE
:1032C0008160C1604FF40031016109014161002159
:1032D00001760121417600218176C17601770121B5
:1032E0004177FDF76BFF08B1FDF727FC10BD00002B
:1032F000006400400C03002000B587B0142102A830
:10330000FDF748F800BF002001904848006840F0F1
:103310000100464908600846006800F0010001907D
:1033200000BF00BF00BF002001900846006840F0C9
:10333000080008600846006800F00800019000BF1F
:1033400000BF00BF002001900846006840F0200048
:1033500008600846006800F02000019000BF00BF30
:1033600000BF002001900846006840F0800008601F
:103370000846006800F08000019000BF00BF00BF59
:10338000002001900846006840F0400008600846B0
:10339000006800F04000019000BF00BF00BF0020A7
:1033A00001900846006840F0100008600846006878
:1033B00000F01000019000BF00BF01224FF4FF7128
:1033C0001B48FEF76BF90122D1021A48FEF766F995
:1033D0000122D1021848FEF761F94FF4FF70029004
:1033E00001200390002004900220059002A91048BB
:1033F000FEF750F84FF40060029001200390002087
:1034000004900220059002A90A48FEF743F84FF401
:10341000006002900120039004900220059002A910
:103420000548FEF737F807B000BD0000303802400D
:1034300000180240001C02400010024010B50B486A
:103440000B4908600B484860002109488160C16051
:103450004FF480410161002141618161C1610162DC
:10346000FEF728F908B1FDF768FB10BD00580040D1
:1034700034030020A086010000B587B0002003902F
:103480000490059006900190029016481649086035
:1034900044F29F10486000211348816042F20F718E
:1034A000C16000210161416180218161FFF716FA4D
:1034B00008B1FDF742FB4FF48050039003A90A487E
:1034C000FFF7D0FA08B1FDF738FB00200190029019
:1034D00001A90548FFF7A8F908B1FDF72EFB07B0D1
:1034E00000BD0000000001408803002000BFFEE78F
:1034F0002DE9F0412DED088B04460E4615461F467A
:10350000DDF83880E0882081E6802580678084F8B7
:103510000480284601F09FFE41EC1B0B9FED130B2E
:1035200053EC102B01F0E2FC41EC180BE06801F0C9
:1035300092FE41EC1A0B53EC182B01F023FC41ECEA
:10354000190B01F02BFEE0600A49E06890FBF1F2F4
:1035500001FB1200E060E068002802DAE06808443D
:10356000E060BDEC088BBDE8F081000000000000C9
:103570000000144078F8010000BFFEE700B50146E6
:10358000F0EE402AB0EE603AF0EE413A9FED0E1AAE
:1035900033EE411AF0EE410A9FED0B1A32EEC11ADA
:1035A000B0EE410A01F1280000F0B4F8D1ED110AA3
:1035B000B0EE600AF0EE630A084600F01DF891EDE7
:1035C000070A81ED200A00BD003C7C4780ED000A1F
:1035D000C0ED010A80ED021AC0ED061A80ED082A3E
:1035E000DFED042AC0ED092ADFED022AC0ED072A2B
:1035F000704700000000000090ED031A80ED041AEF
:1036000030EE601AB5EEC01AF1EE10FA02DB30EEC1
:10361000601A03E030EE601AB1EE411AD0ED091ADB
:10362000B4EEE11AF1EE10FA04D29FED391A80EDF2
:10363000031A03E030EE601A80ED031A90ED031ACE
:10364000D0ED041A31EE611AD0ED021A21EE211AE2
:1036500080ED071A90ED071AD0ED031A90ED002ABD
:1036600001EE821A80ED071A90ED051AD0ED031ACB
:1036700090ED012A01EE821A80ED051A90ED051AEF
:10368000D0ED061AF1EE611AB4EEE11AF1EE10FA7D
:1036900004D890ED061AB1EE411A0DE090ED051A2E
:1036A000D0ED061AB4EEE11AF1EE10FA02DB90ED5D
:1036B000061A01E090ED051A80ED051A90ED071A43
:1036C000D0ED051A31EE211A80ED071A90ED071A98
:1036D000D0ED081AF1EE611AB4EEE11AF1EE10FA2B
:1036E00004D890ED081AB1EE411A0DE090ED071ADA
:1036F000D0ED081AB4EEE11AF1EE10FA02DB90ED0B
:10370000081A01E090ED071A80ED071A70470000D3
:103710000000000090ED031A80ED041A30EE601AEC
:10372000B5EEC01AF1EE10FA02DB30EE601A03E0DB
:1037300030EE601AB1EE411AD0ED091AB4EEE11A7A
:10374000F1EE10FA04D29FED4A1A80ED031A03E05D
:1037500030EE601A80ED031A90ED031ADFED451A82
:10376000B4EEE11AF1EE10FA08DD90ED031ADFED88
:10377000421A31EE611A80ED031A10E090ED031A3F
:10378000DFED3E1AB4EEE11AF1EE10FA07D290ED39
:10379000031ADFED391A31EE211A80ED031A90ED8C
:1037A000031AD0ED041A31EE611AD0ED021A21EE9F
:1037B000211A80ED071A90ED071AD0ED031A90ED4B
:1037C000002A01EE821A80ED071A90ED051AD0ED5D
:1037D000031A90ED012A01EE821A80ED051A90ED90
:1037E000051AD0ED061AF1EE611AB4EEE11AF1EE07
:1037F00010FA04D890ED061AB1EE411A0DE090EDE2
:10380000051AD0ED061AB4EEE11AF1EE10FA02DB59
:1038100090ED061A01E090ED051A80ED051A90ED85
:10382000071AD0ED051A31EE211A80ED071A90ED36
:10383000071AD0ED081AF1EE611AB4EEE11AF1EEB2
:1038400010FA04D890ED081AB1EE411A0DE090ED8F
:10385000071AD0ED081AB4EEE11AF1EE10FA02DB05
:1038600090ED081A01E090ED071A80ED071A7047F5
:1038700000000000003C7C47003CFC47003C7CC74B
:103880007047000010B52DED068BF0EE408AB0EECB
:10389000609AF0EE419AB0EE618A5C48007820B9F7
:1038A000BFEE000ABDEC068B10BD594890ED000A32
:1038B000B5EEC00AF1EE10FA18D2564890ED000AA3
:1038C0005548D0ED000A20EE200A5248D0ED010AFA
:1038D000514890ED011A00EE810A4E48D0ED020ADF
:1038E0004D4890ED021A00EE810ADBE74A48C0ED30
:1038F000008A80ED019AC0ED029A484880ED008A66
:10390000B7EE000AB4EEC08AF1EE10FA61DD444968
:10391000444800F083FF444A4249444800F0EEFE28
:10392000434A42493E4800F0E9FE424A3D49404888
:1039300000F0E4FE4048D0ED000A404890ED001A47
:1039400080EE810A90ED001AC0EE010AB7EE000A7F
:1039500030EE800AF7EE000A80EE801AF0EE41AAFF
:103960003749B0EE6A0A304800F026FF354A36493A
:103970002B4800F0C3FE2948D0ED000A334890EDF3
:10398000001A70EEC10AB0EE600A31492C4800F00E
:1039900013FF3049B7EE000A2B4800F00DFF2A4A0A
:1039A0002B492C4800F08AFE2B4A1D49244800F080
:1039B000A5FE2A4A1D49284800F0A0FE2849B7EE76
:1039C000000A1A4800F0F8FE184A2449244800F07A
:1039D00009FF104890ED000A0F48D0ED000A20EED4
:1039E000200A0C48D0ED010A0B4890ED011A00EEB8
:1039F000810A0848D0ED020A074890ED021AB0EE9D
:103A000040AA00EE81AAB0EE4A0A4BE73C00002033
:103A100018000020D0030020E803002064000020EC
:103A2000A40000208C0000209C0000207C000020CE
:103A3000AC000020B40000206C00002068000020D2
:103A400084000020BC0000207400002070000020D2
:103A5000C4000020CC000020DC000020E400002096
:103A6000D400002010B501203D4908709FED3D0AAB
:103A70003D4880ED000A9FED3D0A80ED010A9FED73
:103A80003C0A80ED020A9FED3B0A3B4880ED000AAC
:103A90009FED380A80ED040A9FED380A80ED080A90
:103AA0009FED370A374880ED000A2F4B0122032192
:103AB000354800F01FFE304B03221146334800F01A
:103AC00019FE334B01220321324800F013FE324B22
:103AD00001220321314800F00DFE314B0122114635
:103AE000304800F007FE304B012203212F4800F040
:103AF00001FE2F4B032201212E4800F0FBFD2E4B2F
:103B0000032201212D4800F0F5FD2D4B0122114625
:103B10002C4800F0EFFD2C4B012211462B4800F001
:103B2000E9FD2B4B012203212A4800F0E3FD2A4B3B
:103B300001220321294800F0DDFD294B0322114613
:103B4000284800F0D7FD284B03221146274800F0F3
:103B5000D1FD274B03221146264800F0CBFD10BDB6
:103B60003C00002045B62434D0030020C1D43A34B0
:103B700014AE473FDC2434274000002017B7D1376C
:103B800072F97F3F68000020740000207C00002054
:103B9000DC03002084000020E80300208C000020CB
:103BA0006400002094000020F40300209C0000200A
:103BB00000040020A40000200C040020AC00002021
:103BC0006C000020B400002070000020BC00002029
:103BD00018040020C400002024040020CC00002091
:103BE00030040020D400002054040020DC00002019
:103BF00078040020E40000209FED0D0A0D4880EDC0
:103C00000E0A9FED0D0A80ED0F0AB7EE000A80ED57
:103C1000100A9FED0A0A80ED110A0020054981F87B
:103C20003400B1EE040A084680ED020A7047000035
:103C3000C1D43A34FC000020335B2534503C233699
:103C40001948B0F9000018490979401A00EE900AA5
:103C5000F8EEE00AB0EE600AB5EEC00AF1EE10FA36
:103C600010DD1148007900EE900AF8EE600A9FED31
:103C70000F1A40EE410AFCEEE00A10EE900A0A49E3
:103C800008710FE00848007900EE900AF8EE600A2B
:103C90009FED071A70EE810AFCEEE00A10EE900A22
:103CA0000149087170470000FC0000206F12833A40
:103CB0000AD7233C704710B5FEF742F910BD00004B
:103CC00000B593B0302107A8FCF764FB142102A8CB
:103CD000FCF760FB00BF002001902448006840F022
:103CE0008050224908600846006800F0805001902A
:103CF00000BF00BF00BF002001901D48006840F4D5
:103D000080401B4908600846006800F4804001902C
:103D100000BF00BF012007900004089002200D9012
:103D200041050E9106210F91A821109102211191B8
:103D30000421129107A8FEF70DFB08B1FCF7FDFE68
:103D40000F20029002200390002004904FF4A05016
:103D500005904FF480500690052102A8FEF7CAF99D
:103D600008B1FCF7EAFE13B000BD00004038024085
:103D7000007000400348006840F47000014908608A
:103D80007047000088ED00E010B50248FEF7F1FE34
:103D900010BD00008803002010B50248FEF7E9FEC0
:103DA00010BD00008803002010B50248FEF7E1FEB8
:103DB00010BD00008803002010B50248FEF7D9FEB0
:103DC00010BD00008803002010B502682D4B9842FA
:103DD0000ED0B0F1804F0BD02B4B984208D02B4B1C
:103DE000984205D02A4B984202D02A4B984203D1E0
:103DF00022F070024B681A43224B984220D0B0F157
:103E0000804F1DD0204B98421AD0204B984217D09B
:103E10001F4B984214D01F4B984211D01E4B984212
:103E20000ED01E4B98420BD01D4B984208D01D4B14
:103E3000984205D01C4B984202D01C4B984203D1AB
:103E400022F44072CB681A4322F080034C6943EAA3
:103E5000040202608B68C3620B688362094B98425C
:103E600002D00C4B984201D10B69036301234361DB
:103E7000036903F001031BB1036923F0010303612C
:103E800010BD000000000140000400400008004098
:103E9000000C00400004014000400140004401408B
:103EA0000048014000180040001C00400020004075
:103EB00030B50C46816821F47F4142EA0325254351
:103EC0002943816030BD0A46816821F0700142F0CB
:103ED000070319438160704730B50B461446026AE8
:103EE000056A25F001050562816921F0F00141EACA
:103EF000041122F00A021A438161026230BD30B51A
:103F00000B461446026A056A25F0100505628169B0
:103F100021F4704141EA043122F0A00242EA031286
:103F20008161026230BD00002DE9F04188B0804619
:103F30000E4614461D4600200390029604900590FC
:103F400008200690A4208DF8000000208DF80100C4
:103F5000E8B28DF80200280A8DF80300E0B28DF86F
:103F60000400200A8DF80500200C8DF80600200EB4
:103F70008DF8070001236A4602A90348FCF7F5FD06
:103F8000074608B0BDE8F0810C0300202DE9F0479A
:103F900088B082460E4614461D46DDE910780020A2
:103FA000039002960490059008200690200A8DF850
:103FB0000000E0B28DF80100280A8DF80200E8B296
:103FC0008DF80300380A8DF80400F8B28DF805006A
:103FD0004FEA18208DF8060008F0FF008DF8070062
:103FE00001236A4602A90348FCF7BFFD814608B0D9
:103FF000BDE8F0870C03002000BFFEE730B597B0A6
:1040000004461448007838B901A800F0F9F90546CB
:1040100001A800F049FA00BF0F48D0ED010AB0EE48
:10402000600ADFED0E0A00F0F7FA84ED0E0A0A4886
:10403000D0ED000AB0EE600ADFED080A00F0ECFAFD
:1040400084ED0F0A044890ED020A84ED100A17B0BF
:1040500030BD00003C000020D003002077CC2B3284
:1040600080ED000A70470000F0B52DED0A8B85B099
:1040700005460F4614461E469DED14CA2846FFF716
:10408000BDFFD5ED020AB0EE600A00EE907AF8EEC0
:10409000600A05F10C00FFF7AFFAD5ED0A0AB8EE99
:1040A0004C1A71EE600AB0EE600AF1EE040A00F0FC
:1040B000B3FAF0EE409ABCEEE90A10EE100AA871CD
:1040C000002001900290039004909FEDCA0AF0EE48
:1040D00040CA00BF48E095ED110A04EB8001D1ED24
:1040E000000A60EE200A06EB0011B1F9001000EEA4
:1040F000101AB8EEC00A20EE800AD5ED0E0A04EBC5
:10410000800191ED001A60EE810A04EB800191EDCF
:10411000001A00EE810A95ED0F1A06EB0011B1F9B5
:10412000001000EE901AF8EEE00A21EE201A06EBDD
:104130000011B1F9001000EE901AF8EEE00A01EE5D
:10414000200AD5ED100A30EE200A01A901EB80010A
:1041500081ED000A01A901EB800191ED000A30EE2A
:104160002C0AF0EE40CA401C0428B4DBF4EEE9CA85
:10417000F1EE10FA7DDB95F83400012879D19FED3E
:104180009D0AB0EE408A9FED9B0AF0EE408A9FEDBB
:10419000990AB0EE409A9FED970AB0EE40AA00202F
:1041A00051E001A901EB800191ED000AB5EEC00AD2
:1041B000F1EE10FA00D244E095ED0E0A04EB800116
:1041C000D1ED000A60EE200A04EB800191ED001AA7
:1041D000B0EE680A00EE810AF0EE408A95ED110A11
:1041E00004EB8001D1ED000A60EE200A06EB00111D
:1041F000B1F9001000EE101AB8EEC01AB0EE490A7C
:1042000000EE810AB0EE409AD5ED0F0A06EB0011E0
:10421000B1F9001000EE101AB8EEC00A60EE800A84
:1042200006EB0011B1F9001000EE101AB8EEC01A3A
:1042300095ED100A00EE810A30EE0A0AB0EE40AAAF
:1042400000BF411CC8B20128ABDB3AEE690AB0EEF0
:1042500040AA29EE090AF1EE000A68EEA00AF0EE83
:1042600040AA40EECAAAF5EEC0AAF1EE10FA06D2B4
:1042700000E0BCE09FED5F0AB0EE408A42E0B0EEA5
:104280006A0A00F012F9F1EE490A30EE200AF0EE67
:10429000000A68EEA00A80EE201AB0EE41BAB0EE35
:1042A0006A0A00F002F9F1EE490A30EEC00AF0EEB7
:1042B000000A68EEA00A80EE201AF0EE41BAB5EED0
:1042C000C0BAF1EE10FA08DDB7EE000AB4EEC0BADB
:1042D000F1EE10FA01D2B0EE4B8AF5EEC0BAF1EE73
:1042E00010FA0EDDB7EE000AF4EEC0BAF1EE10FAE5
:1042F00007D2F0EE6B0AB0EE480A00F08DF9B0EE8E
:10430000408A00BFB5EEC08AF1EE10FA6EDBB7EE60
:10431000000AB4EEC08AF1EE10FA67D200205FE026
:1043200001A901EB800191ED000AB5EEC00AF1EEA2
:1043300010FA24D204EB800191ED000ADFED2E0A81
:10434000B4EEE00AF1EE10FA02D89FED2B0A11E06C
:1043500004EB800191ED000ADFED280AB4EEE00ADB
:10436000F1EE10FA02DB9FED250A03E004EB800179
:1043700091ED000A04EB800181ED000A2EE004EBD0
:10438000800191ED000A20EE080A04EB800181ED26
:10439000000A04EB800191ED000ADFED170AB4EE8C
:1043A000E00AF1EE10FA02D89FED130A11E004EBD7
:1043B000800191ED000ADFED110AB4EEE00AF1EEA2
:1043C00010FA02DB9FED0D0A03E004EB800191ED92
:1043D000000A04EB800181ED000A00BF411CC8B255
:1043E00004289DDB05B0BDEC0A8BF0BD00BF00BF0B
:1043F000F8E700000000000000007AC600007A46DE
:1044000010B504469FED1F0A84ED000A0020A0802D
:10441000A0719FED1D0A84ED020A012084F834008A
:104420009FED1A0A84ED0E0A9FED190A84ED0F0A1A
:10443000B7EE000A84ED100A9FED160A84ED110A0A
:104440009FED150A84ED120A9FED140A84ED130AFC
:10445000B7EE000A84ED140A9FED110A84ED150AE7
:104460009FED102ADFED071A9FED061ADFED050A12
:10447000B2EE000A04F10C00FFF7A8F8FFF7F2FA19
:10448000204610BD0000000000004842C1D43A346C
:10449000335B2534503C233617B7D1378232E032B4
:1044A00040DA29370000C842704710B52DED028B65
:1044B000B0EE408AB0EE480A00F0D2F8BDEC028BB4
:1044C00010BD000002480068C0F3022070470000E1
:1044D0000CED00E010B5002804DB0A07130E054AB6
:1044E000135406E00A07140E034A00F00F031B1FC3
:1044F000D45410BD00E400E018ED00E0000000001E
:104500002DE9F0412DED020B9FED3D0B2DED028BC2
:104510009FED3D8BDDE90254C4F30A50A0F2FF3653
:10452000142E37DA002E18DA53EC102B9DED020B07
:1045300051EC100B00F026FC53EC182B00F0DCFFC4
:1045400057D2002CBCBF4FF00044002551DB54EA89
:10455000050018BF2E4C1BD14BE02E4820FA06F761
:1045600004EA070028431FD053EC102B9DED020BEB
:1045700051EC100B00F006FC53EC182B00F0BCFFC4
:1045800037D2002C03DD4FF48010F0400444BC43CC
:1045900000252EE0332E07DCA6F114004FF0FF318A
:1045A00021FA00F73D4206D19DED020BBDEC028BD6
:1045B00002B0BDE8F08153EC102B9DED020B51ECE5
:1045C000100B00F0CFFF53EC182B00F095FF10D22A
:1045D000002C0DDD142E08BF641C09D0C6F1340078
:1045E000012101FA00F02844A84238BF641C0546A6
:1045F000BD43CDE902549DED020BD7E7000000005A
:104600009C7500883CE4377E00000000000000003C
:104610000000F03FFFFF0F0010B52DED028BB0EE54
:10462000608AF0EE408A18EE101A18EE900A01F037
:104630009BF800F07040B0F1005F0CD018EE100A4B
:1046400020F00040C0F1FF40C00F02BFB0EE480AAA
:10465000BDEC028B10BDB0EE680ABDEC028B10BD44
:1046600010B52DED028BB1EEC08A18EE100A20F0C5
:104670000040C0F1FF40C00F0AD010EE100A20F039
:104680000040C0F1FF40C00F04BF0120FBF7F6FE61
:10469000B0EE480ABDEC028B10BD000010B5044816
:1046A000FFF7AEFE0446034A0349FBF75CFE10BD6C
:1046B0009C04002000000008A94400082DE9F043F4
:1046C00003465C684D685668B3F80080B3F8029002
:1046D00008FB09FC674608E0B4EC010AF5EC010AA6
:1046E00030EE200AA6EC010A7F1E002FF4D1002034
:1046F000BDE8F08301804280436070472DE9F74FA9
:1047000084B003465D684E685F68D1F804B0CDF8A8
:104710000CB0DDF818B0DBF804B0CDF808B0B3F891
:1047200000B0CDF804B04A88B3F802804FF0000919
:10473000DDF804B0CDF800B000BFDDF808B00BEB39
:10474000890C14464E6800BFDFED1A0AB0EE600A0D
:104750003D46C2460DE0B5EC011AD6ED001AF0EE6A
:10476000400A41EE210AB0EE600A06EB8206AAF189
:10477000010ABAF1000FEED1ACEC010A641EA2EB03
:10478000040EDDF80CB00BEB8E06002CDCD191444E
:1047900007EB8807DDF800B0ABF1010BCDF800B0F6
:1047A000DDF800B0BBF1000FC7D1002007B0BDE8B5
:1047B000F08F000000000000F0B5024653684C681E
:1047C0001788B2F802C007FB0CF6354606E0F3EC9A
:1047D000010A60EE800AE4EC010A6D1E002DF6D19C
:1047E0000020F0BD2DE9F04303465C684D68566833
:1047F000B3F80080B3F8029008FB09FC674608E0B4
:10480000B4EC010AF5EC010A30EE600AA6EC010AEC
:104810007F1E002FF4D10020BDE8F0832DE9F04782
:1048200002465368D1F804801588B2F802902E46EB
:104830004FF0000C00BF08EB8C044F4606E0B3ECD1
:10484000010A84ED000A04EB85047F1E002FF6D1D7
:104850000CF1010C761E002EEDD10020BDE8F08792
:10486000002024E0134931F81010134A92F9002077
:1048700002EBC20303EB021201EB820109B20D4A03
:1048800022F81010114631F9101041F64C529142A5
:1048900002DDFF21084A1170064931F91010074A5C
:1048A000914202DA0121044A1170411CC8B2022867
:1048B000D8DB7047220000203B000020B4E2FFFF5D
:1048C0004FF47A6002490880401048807047000029
:1048D00022000020704700001C480078401C40B2B5
:1048E0001A49087008460078012803D100201849A9
:1048F0000880488015480078022804D140F6B83076
:1049000013490880488011480078052803D1002009
:104910000F49088048800D480078062804D14FF2DE
:1049200048400B490880488008480078092803D18E
:104930000020074908804880044890F900000928B1
:1049400002DD002001490870704700003A00002095
:1049500022000020074800680749B0FBF1F0074932
:104960000870044800684FF47A71B0FBF1F0044914
:1049700008607047F800002040420F00000000204F
:10498000040000202DED028B84B0FDF7E5FAFFF75F
:1049900097F9FEF7B1FCFEF751FDFEF789FCFEF733
:1049A0006BFDFFF7D7FFD648FEF708F8D548FBF7B1
:1049B000C3FE9FEDD51B9FEDD60B4021D148FBF7E1
:1049C000D5FEFCF735F8002435E004EB8401D24A2B
:1049D00002EBC1009FEDD12ADFEDD11AB7EE001A2C
:1049E000DFEDCF0AB2EE000AFEF7F0FD04EB441152
:1049F000CC4A02EB810101F128009FEDCB2ADFEDCB
:104A0000C81A9FEDC71ADFEDC60A9FEDC80AFEF768
:104A1000DDFD04EB4411C34A02EB81009FEDBF2A88
:104A2000DFEDBF1AB1EE001ADFEDBD0AB1EE080AE4
:104A3000FEF7CCFD641C022CC7DBFFF7DDF8FFF7A7
:104A400011F85BE1BA4800680A30B94908600120F2
:104A5000FCF70CFDB74890ED000ABDEEC00A10EE61
:104A6000100A00B2ADF80C00B3480088B3490880C2
:104A7000FCF71AFEB049088008460088AF4909884B
:104A8000401AAF4908809F48FBF760FE00EE100A0D
:104A9000B8EEC00ADFEDAB0A80EE201AAA4880ED1E
:104AA000001A90ED000A00F061F9FFF7C9F8A64876
:104AB00090ED000AF7EE000AB4EEE00AF1EE10FA0B
:104AC00035DDA2480088BDF80C1010FB01F000EEA7
:104AD000100AB8EEC00A9E48D0ED110A20EE200A56
:104AE000B0EE408ABDF80C0010FB00F001EE100A99
:104AF000B8EEC11AF0EE410A9448008810FB00F0AD
:104B000001EE100AB8EEC11AB0EE410A8E4890EDDF
:104B1000001A31EE481AF0EE411AB7EE001AFEF70D
:104B2000B1FE30EE080A8B4880ED000A00BF002479
:104B300099E0894830F91400884931F91410401A75
:104B4000052808DD844830F81400643800B2824932
:104B500021F8140011E0804830F914007F4931F940
:104B60001410401A10F1050F07DA7B4830F81400D2
:104B7000643000B2784921F814007948007838B1DF
:104B800077480078012803D075480078032827D19A
:104B90006E4901EB0411B1F9001001EE101AB8EEE4
:104BA000C11AF0EE410A6C4931F9141001EE101AE5
:104BB000B8EEC11AB0EE410A04EB8401564A02EB8A
:104BC000C100FEF719FD04EB8400534901EBC0005E
:104BD00090ED070A574800EB840080ED000A41E0A1
:104BE0005F48007802283DD1584901EB0411B1F922
:104BF000001001EE901AF8EEE11AB0EE611A534976
:104C000001EB0411D1ED031AF8EEE11AF0EE610A9E
:104C1000544951F8241001EE901AF8EE611AB0EEE2
:104C2000610A04EB44113F4A02EB8100FEF7A6FC47
:104C300004EB44103B4901EB800090ED070A3D482E
:104C400000EB840080ED000A04EB441001EB8000CF
:104C500090ED110ABDEEC00A10EE100A00B23F49F5
:104C600021F81400641C022CFFF663AF9FED2C0AA0
:104C7000304880ED030A9FED2A0A80ED020A9FED7D
:104C8000280A80ED010A0523304A01463220FBF74D
:104C900043FF002000900190264890ED000ABDEEF1
:104CA000C00A10EE100A02B200234FF400712E4821
:104CB000FFF76CF94FF461631D484FF4A27102686D
:104CC0002948FFF731F94FF4C8611A4890ED010AFD
:104CD000BDEEC00A10EE100A00B2CDE90001154881
:104CE00090ED000ABDEEC00A10EE100A02B20023D9
:104CF0004FF400711C48FFF749F900BFA2E600001D
:104D000088030020AC0200200000000000002440C6
:104D10007B14AE47E17A843F5401002000007A46BC
:104D200000000000A40100200000FA45CDCC4C3E5C
:104D30002800002044010020200000201E00002048
:104D40001C0000200024744914000020BC02002034
:104D5000FC000020180000202C0000202200002071
:104D60000C000020300000200C03002000B5F0EE05
:104D7000400AB0EE600A0248FFF772F900BD000079
:104D80009C04002010B591EA030F48BF83F0004354
:104D900000F1FC83841A71EB030C05D2121943EB6A
:104DA0000C03001B61EB0C01DFF824E14FEA115406
:104DB000A4EB135C1EEA430F18BF9EEA445F73D056
:104DC00023EA0E03DCF1200E21EA045143F48013A0
:104DD00032D322FA0CFE10EB0E0023FA0CFE41EB4C
:104DE0000E01CCF1200E03FA0EFE10EB0E0051F175
:104DF0000001B1F5801FCCF1200E32D201EB04513D
:104E000012FA0EF2BDE8104058BF7047401C38BF80
:104E10005FEA420218BF7047002814BF20F001006B
:104E200041F100014FEA410313F5001F38BF7047FD
:104E3000A1F1C04100F05ABB012A43EB0302ACF1DF
:104E4000200CDCF11F0E32BF4FF0000E23FA0CF3E2
:104E500010EB030041EB0451B4EB115FD0D0A1EB98
:104E6000045101F5801149085FEA300001EB04515B
:104E70000ED350F1000038BF12FA0EFE08D1BDE883
:104E80001040C9E7401C38BF5FEA4202CAD1C3E7FD
:104E9000BDE810404FEA410313F5001F38BF7047CB
:104EA000A1F1C04100F022BB9EEA445F08D011EAA4
:104EB0005E0FBDE8104004BF01F0004100207047C4
:104EC000BDE8104070B500F0C3FA00BF64FBBE3E01
:104ED0000000E0FF491058BFC1F140415B1058BFCE
:104EE000C3F140438B42EFF3008070472DE9C0418E
:104EF00030B4DFF8A0C23CEA111418BF3CEA131426
:104F000000F0EC8081EA03051CEA111444EAD57430
:104F100018BF1CEA131500F0C780A4EB05044FF07E
:104F2000004545EAC12145EAC32341EA505143EA1D
:104F3000525304F17F74994204F500344FEAC020C3
:104F40004FEAC22208BF904200F09C804FEA1365EE
:104F50000FF24016765D4FEA134506FB05F7C7F1E1
:104F6000807706FB07F74FEAD737A7FB036876423F
:104F7000C8F58038A7FB06CE38BFA8F1010807FBAB
:104F800008E64FF0000EA6FB028CE6FB03CEDCF138
:104F9000000CCEF1004E38BFAEF1010EA6FB0C584E
:104FA0004FF000074FF00005E6FB0E87A1FB08C697
:104FB000A0FB07CE16EB0E0645F10005E1FB0765E9
:104FC00015F1E04E7EBFA4F580345FEA46066D41E0
:104FD00016F1800745F100054FEA17274FEA0666EC
:104FE00047EA0567A6F1DE46B6F1805F4FEA152570
:104FF0001FD9384624F0010C05EBC471BCF1FE6FDB
:1050000001EB0C1102D8F0BCBDE8008124425CBF6A
:1050100001F5801E9EEAC47F02D4F0BCBDE8008189
:10502000244238D4F0BCA1F1C041BDE8004100F0F9
:105030005DBA4FEAD22242EA43524FEAD323A7FB9A
:1050400002864FEAD02040EA415007FB03661EEA81
:105050000E0F4FEAD12105FB026658BFA6EB0056A2
:10506000B6EB00564FEA520E4EEAC37E18EB0E0E18
:1050700056EB530EBDD518EB02085E417F1C55F16F
:105080000005B6E74FF480154FF000074FF000061B
:105090004FF00008ADE7F0BC4FF0000001F1C04157
:1050A00001F00041BDE8008111EA0C1F0CEA131564
:1050B00000D00CE013EA0C1F00F025804FF0000038
:1050C000F0BC81EA030101F00041BDE80081F0BCC1
:1050D000BDE8004181EA030100F008BAF0BCBDE878
:1050E000004170B500F0B4F9097EFC3E00F007B84D
:1050F00081EA03014FF0000001F00041704781EAAE
:10510000030100F0F3B9F0BCBDE800414FF000002E
:1051100021497047FFFDFBF9F7F5F4F2F0EEEDEBF6
:10512000E9E8E6E4E3E1E0DEDDDBDAD8D7D5D4D3A5
:10513000D1D0CFCDCCCBCAC8C7C6C5C4C2C1C0BFF1
:10514000BEBDBCBBBAB9B8B7B6B5B4B3B2B1B0AFF7
:10515000AEADACABAAA9A8A8A7A6A5A4A3A3A2A1DB
:10516000A09F9F9E9D9C9C9B9A9999989797969596
:1051700095949393929191908F8F8E8E8D8C8C8B32
:105180008B8A8989888887878685858484838382BA
:10519000828181800000FF070000F87F4FEA410311
:1051A0004FEA5353A3F58063D3F11E03C8BFD3F175
:1051B000210C0CDD4FF0004242EAC12242EA50527B
:1051C00032FA03FC8CEAE17CACEBE1707047102B07
:1051D000C4BF0020704703F5787CBCF1FF3F04D0CA
:1051E0006FF0004282EA2100704770B500F030F99C
:1051F0004992248000207047F2E700004FEA1153E3
:10520000A3F58063D3F11E03A8BFD3F1200C08DB04
:105210004FF0004242EAC12252EA505232FA03F001
:10522000704709420BD4102BC4BF0020704703F510
:10523000787CBCF1FF3F05D04FF0FF3070474FF056
:105240000000704770B500F003F900BF4992248058
:1052500000207047F0E710F0004248BF4042B0FA2B
:1052600080F310FA03F10AD0C3F11D0303F5806344
:105270004FEA415002EB035202EBD12170474FF04D
:105280000000704751EA030C17D41CF5801F58BF6B
:10529000BCF5801F00F10680994218BF704708BF17
:1052A0009042704707D711F5801F58BF13F5801F34
:1052B00019D499427047894270471CF5801F08D560
:1052C000BCF5801FF7D58B4218BF704708BF8242DC
:1052D00070474FF4001C1CEB410F38BF1CEB430F11
:1052E00001D28B42704770B500F0B2F892244900A9
:1052F0004FF000514FF08053FFF7ECBDDFF848C18D
:1053000070B51CEA111E1EBF1CEA13159EEA0C0F95
:1053100095EA0C0F00F06F8081EA030423EA4C1336
:105320004EEAD47E21EA4C1141F4801143F48013FB
:10533000AE44A1FB024CA0FB0365AEF17F7E3619A3
:1053400055EB0C05A1FB034C4CF10003A0FB021C28
:1053500016EB0C06654153F10003094218BF46F0F5
:10536000010613F4007F0BD14FEA03314FEA0530F9
:10537000340341EA155140EA16506FF003020AE087
:105380004FEAC3214FEAC520F40241EA555140EAF1
:1053900056506FF0020202EB2E4201EB025585EAF5
:1053A000CE710AD05FEA440C18BF24F0004450F1DB
:1053B000000041F1000120EAD47040F2FE7C624519
:1053C00000D270BDA84214BF4FF080444FF040445B
:1053D000002E08BF0024BEF1806FA8BFA1F1C0411C
:1053E000BDE8704080F282804FF0000001F1C041C2
:1053F00001F0004170479EEA0C0F0CEA131518BF2C
:1054000095EA0C0F06D04FF0000081EA030E0EF073
:10541000004170BD00F01CF88900013E00F007B8A3
:1054200000F009B84FEA430C5FEA5C5C08D081EAFF
:10543000030100F05BB84FEA410C5FEA5C5CF6D117
:105440004FF00000014970470000FF070000F87F9F
:105450000EF1020E2EF0030E5EF8046B364205D4F8
:10546000012A43EB030515F5001F12D8012841EB73
:10547000010C1CF5001F0CD80ED14FEAD17C15F59C
:10548000001F0CEB4C0C0CF1020C08BF4CEBD37C56
:1054900004E04FF0080C01E04FEAD37C0CEB4C0524
:1054A00026FA05F606F00706B6F1040C06D20EEB56
:1054B000860CBDE870404CF0010C6047DFE80CF052
:1054C000090B02024FF000414FF00000A1F500214E
:1054D00070BD19461046012851EB010418BFD4F5E0
:1054E000001484BF002001F0004170BD0808A0F541
:1054F00000114FEA3101704753EA010C17D41CF533
:10550000801F58BFBCF5801F00F106808B4218BF7A
:10551000704708BF8242704707D713F5801F58BFF6
:1055200011F5801F19D48B4270479B4270471CF5C0
:10553000801F08D5BCF5801FF7D5994218BF70476A
:1055400008BF904270474FF4001C1CEB430F38BF5C
:105550001CEB410F01D2994270470FB40CBC03BC45
:10556000FFF7C1BE91EA030F10B581F000413FF58E
:1055700011AC83F0004300F009B8000010B591EAC7
:10558000030F48BF83F000433FF504AC841A71EB6E
:10559000030C07D212198CF0004C43EB0C03001BD8
:1055A00061EB0C01DFF8A4E14FEA1154A4EB135CAA
:1055B0001EEA430F18BF9EEA445F00F0B08023EA62
:1055C0006E03524221EA0451C3EB6E0338BF5B1EE7
:1055D000DCF1200E25D322FA0CFE10EB0E0043FA6C
:1055E0000CFE41EB0E01CCF1200E03FA0EFE10EB87
:1055F0000E0051F10001CCF1200E29D412FA0EF266
:1056000001EB0451BDE8104058BF7047401C1CBF5F
:10561000B2F1004F704700280CBF491C20F0010078
:10562000704712EB020E43EB030218BF4FF0010E5E
:105630004EEA4202ACF1200CDCF11E0E54D943FAC2
:105640000CFE10EB0E0051F1FF31CCF11E0ED5D542
:105650000EF1010E12FA0EFE404141EB010101EB89
:10566000445C5FEA5C5C10D910EBDE7001EB045126
:1056700038BFBEF1004FBDE8104018BF704700288A
:105680000CBF491C20F00100704730D24FEAD42CE7
:1056900011F5001124F400641BD0B1FA81F20B3A29
:1056A000A41AA41ED2F12003914030FA03F3194347
:1056B000904001EBCC71002C01EB0451BDE810408F
:1056C000A8BF704701F1C0414FF0000001F0004158
:1056D0007047B0FA80F310FA03F100D110BDE41A5C
:1056E000173C4805C90AE4E701EB045110BD491015
:1056F00001EB0451BDE810404FEA300002E04FF0EA
:10570000000170474A0008BF0042F8D0B2F5001F00
:1057100028BF704701F000414FF0000070479EEA3B
:10572000445F07D011EA5E0FBDE8104004BF0021BE
:1057300000207047BDE8104070B5FFF789FE00BF3C
:1057400040DFF63E83F00041104670470000E0FF66
:1057500000EE100A00EE901AB4EE600AF1EE10FAB4
:1057600078BF704700F00DB810B5FFF7F1FFEFF309
:10577000008020F0104038BF40F0004080F30088E7
:1057800010BDBDE8104010B500F017F8000000098A
:1057900000F007B84FF0404010F1004FEFF30080E9
:1057A0007047401058BFC0F14040491058BFC1F188
:1057B00040418142EFF3008070470EF1020E2EF05F
:1057C000030E5EF8044B244204D44FEA4102B2F1C6
:1057D0007F4F11D84FEA4003B3F17F4F0CD80ED161
:1057E0004FEAD07CB2F17F4F0CEB4C0C0CF1020C69
:1057F00008BF4CEBD17C04E04FF0080C01E04FEA0D
:10580000D17C0CEB4C0324FA03F404F00704B4F14C
:10581000040C06D20EEB840CBDE810404CF0010CD9
:105820006047DFE80CF0070802024FF00040A0F5E7
:10583000800010BD0846420018BFD2F1807288BFB8
:1058400000F0004010BD4FF04070E1EE100A7047CC
:105850000000000000000000010203040607080920
:1058600000000000010203048C5800080000002022
:10587000FC000000C401000888590008FC0000205A
:105880005C0A0000E001000815EEFFFF00000000C8
:105890000000000001000000030000000100000003
:1058A00000000000000000000000000000000000F8
:1058B000000000000000000000000000B80B000025
:1058C00000000000000000FF0000000017B7D13703
:1058D00000000000000000000000000017B7D137F2
:1058E00000000000000000000000000017B7D137E2
:1058F0000000000072F97F3F00000000000000007F
:105900000000000000000000000000000000000097
:105910000000000000000000000000000000000087
:105920000000000000000000000000000000000077
:105930000000000000000000000000000000000067
:105940000000000000000000000000000000000057
:105950000000000000000000000000000000000047
:105960000000000000000000000000000000000037
:105970000000000000000000000000001000000017
:08598000010000000024F40006
:040000050800018965
:00000001FF
