:020000040800F2
:10000000700C002039020008F54200087B39000816
:10001000A54100080D0A0008C153000800000000B7
:10002000000000000000000000000000314A00084D
:10003000530C000800000000FD450008334A00088A
:10004000530200085302000853020008530200083C
:10005000530200085302000853020008530200082C
:10006000530200085302000853020008530200081C
:10007000390B00085302000853020008530200081D
:10008000530200085302000853020008210A000826
:10009000110A000853020008530200085302000826
:1000A000054B0008354B0008254B0008154B000890
:1000B00053020008530200085302000853020008CC
:1000C00053020008530200085302000853020008BC
:1000D000530200085302000853020008E1520008CE
:1000E000530200085302000853020008530200089C
:1000F000530200085302000853020008530200088C
:10010000530200085302000853020008530200087B
:10011000530200085302000853020008530200086B
:10012000530200085302000853020008530200085B
:10013000530200085302000853020008530200084B
:10014000530200085302000853020008530200083B
:10015000530200085302000853020008530200082B
:10016000530200085302000853020008530200081B
:100170005302000853020008530200080000000068
:10018000530200085302000800F002F800F045F89E
:100190000AA090E8000C82448344AAF10107DA45E2
:1001A00001D100F03AF8AFF2090EBAE80F0013F0EF
:1001B000010F18BFFB1A43F001031847D06F00006E
:1001C000F06F0000103A24BF78C878C1FAD85207FF
:1001D00024BF30C830C144BF04680C6070470000C1
:1001E0000023002400250026103A28BF78C1FBD840
:1001F000520728BF30C148BF0B6070471FB506F0DB
:10020000B0FF9DE8030000F085F900F0EDF81FBD98
:1002100010B5002000F038F910BD00F0D8F91146F3
:10022000FFF7ECFF05F05CFE00F010FA03B4FFF7F7
:10023000EFFF03BC00F048FA09488047094800472F
:10024000FEE7FEE7FEE7FEE7FEE7FEE7FEE7FEE786
:10025000FEE7FEE704480549054A064B70470000E3
:10026000F14A00088901000870060020700C002087
:10027000700800207008002053EA020C00F069802A
:100280002DE9F04B4FF00006002B1FBFB3FA83F5AA
:1002900003FA05F424FA05F65E4012BF1643B2FADB
:1002A00082F502FA05F4C5F120051EBF22FA05FC0D
:1002B00044EA0C04203556EA044C4FEA144418BFB3
:1002C000641C4FF000084FF00009904271EB030CE2
:1002D00039D3002919BFB1FA81F701FA07F6B0FA4C
:1002E00080F700FA07F6C7F120071EBF20FA07FCC7
:1002F00046EA0C062037B6FBF4FCA7EB0507103FD7
:1003000007F01F0BCBF120060CFA0BFB2CFA06F6BC
:1003100044BFB3460026202FA4BF5E464FF0000B1B
:100320005BEA060C08BF4FF0010B19EB0B09ABFBA6
:10033000027C48EB0608C01B06FB02CC0BFB03CC7F
:1003400071EB0C01C1E70B46024641464846BDE849
:10035000F08B13B54FF000004FF00001AFF30080B9
:10036000BDE81C4070472DE9F041074615460E4692
:10037000102000F04FF804000AD06760C4E902655D
:1003800000F044F80168216004600020BDE8F081BD
:100390000120FBE74FF0000200B513469446964655
:1003A000203922BFA0E80C50A0E80C50B1F1200188
:1003B000BFF4F7AF090728BFA0E80C5048BF0CC036
:1003C0005DF804EB890028BF40F8042B08BF704794
:1003D00048BF20F8022B11F0804F18BF00F8012B06
:1003E000704770477047704770B5064C7C44064DA7
:1003F0007D4403E0206820448047241DAC42F9D1AD
:1004000070BD0000BC6D0000BC6D0000004870476E
:100410004806002070B5064600F05CF8056806F155
:100420000B0020F00704B4429CBF002070BD2B4697
:100430006A68BAB11068A04210D304F1080188427A
:100440003CBF5068586007D351681019416011686B
:10045000091B016058601460101D70BD134652687E
:10046000002AE7D12146284600F040F80028DED1D6
:1004700070BD10B500F032F8006810BD10B504462C
:1004800000F02CF8046010BD2DE9F0410646FFF79E
:10049000BDFF8046454613E016B1E068B0420ED17C
:1004A00020682860D4E90101D8F800708847204608
:1004B00000F066F8D8F80000B842EBD100E025461D
:1004C0002C68002CE8D1BDE8F0810000004870479E
:1004D00010060020004870471806002000487047AA
:1004E00010060020704770477047704738B50446C3
:1004F0000A4600206946AFF30080002808BF38BDD7
:1005000002460099204600F087F8012038BD0120FE
:1005100000F0A5B8F8B5AFF30080054600200C4602
:10052000102000BF0646A819A0420DD932466946E0
:100530000020AFF30080070008BF00F090F800989B
:10054000A04218BF0546C419FFF7C4FF056007465F
:10055000F01D20F007004619284600F00AF8B442C2
:1005600008BFF8BDA21B31463868BDE8F84000F06E
:1005700053B800210160C0E9011070471020704796
:1005800070B50446051FFFF7A5FF0068002C14BFD7
:10059000446870BD002C18BFAC423CBF2046646864
:1005A000F8D301680A18AA4218BF456003D12A6827
:1005B00005461144016028684119A1421CBF6C60C6
:1005C00070BD6168696021680844286070BD754627
:1005D000FFF77CFFAE4605006946534620F0070052
:1005E000854618B020B5FFF735FEBDE820404FF036
:1005F00000064FF000074FF000084FF0000B21F00D
:100600000701AC46ACE8C009ACE8C009ACE8C009D9
:10061000ACE8C0098D467047034640688C46002808
:1006200018BF88423CBF03464068F8D31868184496
:10063000884207D00CF1030020F00700001D411A8A
:10064000521A0146081D0A60FFF79ABF10B504460A
:10065000AFF300802046BDE81040FFF7E7BD10B5BE
:1006600000F00AF8BDE8104000F001B8704700281B
:1006700001D000F029B8704710B5012805D000213D
:1006800003A000F027F8012010BD09A1F8E7000041
:1006900053494752544D454D3A204F7574206F666B
:1006A0002068656170206D656D6F727900000000D3
:1006B0003A2048656170206D656D6F727920636FB7
:1006C000727275707465640001491820ABBEFEE754
:1006D0002600020070B505460C460A2000E06D1C9D
:1006E00000F011F835B128780028F8D102E0641C38
:1006F00000F009F814B120780028F8D1BDE8704066
:100700000A20AFF3008008B569468DF80000032089
:10071000ABBE08BD10B5044661004FF47A730A22DF
:10072000044801F087FB10B16FF0050010BD0020F8
:10073000FCE70000CC040020002101704021417042
:100740000021418081808160C160704738B50446D6
:10075000002000906A460321204600F0A7F8BDF86B
:100760000010E06800FB01F5284638BD70B52DED9E
:10077000048B82B004460D46B0EE408AF0EE608AEB
:10078000B0EE419AF0EE619A002020702846FFF703
:10079000C1FF06462846FFF7BDFF20B1304602B034
:1007A000BDEC048B70BD01AAFE21204600F07EF84E
:1007B000064601AAFE21204600F078F808B130462E
:1007C000EDE7BDF8040045F24941884202D06FF0E0
:1007D0000100E4E701AAFF21204600F067F8064681
:1007E00001AAFF21204600F061F808B13046D6E7A3
:1007F000BDF8040042F26021884202D06FF002008E
:10080000CDE765704FF400420021204600F07EF8ED
:1008100006464FF400420021204600F077F808B168
:100820003046BCE744F2DF020021204600F06EF8BB
:10083000064644F2DF020021204600F067F808B1C6
:100840003046ACE7A21C0021204600F02FF80646F7
:10085000A21C0021204600F029F808B130469EE78E
:10086000608844F2DF01884202D06FF0030096E70F
:10087000B0EE491AF0EE691AB0EE480AF0EE680AD6
:10088000204600F061F80646B0EE491AF0EE691A0B
:10089000B0EE480AF0EE680A204600F055F808B1BC
:1008A00030467CE701202070002078E737B582B021
:1008B00005461446002020804FF47A700090687836
:1008C0004100012303AA104801F016FD18B14FF0B2
:1008D000FF3005B030BD4FF47A7000906878410069
:1008E000022301AA084801F081FB10B14FF0FF304C
:1008F000EFE79DF8040020809DF80500217840EA8C
:10090000012020800020E4E7CC0400207CB50546CF
:100910000E4614468DF80460200A8DF80500E0B2FA
:100920008DF806004FF47A70009068784100032338
:1009300001AA044801F0E0FC10B14FF0FF307CBD8B
:100940000020FCE7CC04002010B52DED0C8B0446F4
:10095000B0EE408AF0EE608AB0EE419AF0EE619A15
:100960009FED240B53EC102B51EC190B06F054F9AE
:100970009FED220B53EC102B05F046FF41EC1C0BB6
:10098000B0EE4C0AF0EE6C0A05F05EF8B0EE40AA4C
:10099000F0EE60AA9FED170B53EC102B51EC1A0BE5
:1009A00005F032FF53EC182B06F036F941EC1C0B26
:1009B00053EC1C2B9FED130B51EC100B05F024FF97
:1009C00041EC1B0B51EC1A0B06F076F8A06051ECD1
:1009D0001B0B06F0A1F8A080A06800EBC00101EBA2
:1009E0000010E060A28805212046FFF78FFFBDECD4
:1009F0000C8B10BD0000000080842E410000000020
:100A0000C0FFDF404968CBB91457753F00BFFEE710
:100A100010B5024800F039FB10BD0000A40400200E
:100A200010B5024800F031FB10BD0000A404002006
:100A300000B58BB0002006900790012008900020A0
:100A4000019002900390049005900120099001A963
:100A5000054800F0BDF9044800F05FFD022102489E
:100A600000F0FBF80BB000BDA4040020F8B505466B
:100A70000C4640F201212868884214D1A07940B286
:100A800000906079267940EA062003B2E078A678E3
:100A900040EA062002B26078267840EA06211C4827
:100AA00003F0E4FB32E040F203212868884215D1CC
:100AB000A07940B200906079267940EA062003B21E
:100AC000E078A67840EA062002B26078267840EA0C
:100AD00006210F48183003F0C9FB17E02868B0F56D
:100AE000A27F13D1607840B20090A078E67840EA07
:100AF000062003B22079667940EA062002B2A07986
:100B0000E67940EA0621034803F0DBF9F8BD00006E
:100B10002C0400208C040020F8B504460D4616462F
:100B20001F4633462A4621460248009704F080FCBF
:100B3000F8BD00002002002010B5024800F08EFD34
:100B400010BD0000B00500200146087810381823B9
:100B5000B0FBF3F20848805CC865032A05D9086831
:100B60006FF30900001D886503E008686FF3090052
:100B70008865886D704700006C7100080146002090
:100B80008A6A8B69CBB932B1012A0DD0022A03D00F
:100B9000032A10D10EE000BFCB6A03F08073B3F1DB
:100BA000807F00D1012007E0CB6AB3F1C07F00D184
:100BB000012001E000E000BF34E08B69B3F5005F85
:100BC0001AD132B1012A07D0022A03D0032A11D147
:100BD0000AE000BF01200EE0CB6A03F08073B3F19E
:100BE000807F00D1012006E0CB6AB3F1C07F00D145
:100BF000012000E000BF15E032B1012A05D0022A31
:100C000004D0032A0CD103E000BF00BF012008E09C
:100C1000CB6A03F08073B3F1807F00D1012000E044
:100C200000BF00BF704730B50468246824F48024F6
:100C300005682C60046863608468402C04D10468F3
:100C4000A2600468E16003E00468A1600468E260F7
:100C500030BD704772B600BFFEE710B5024692F88D
:100C60002030012B01D0022B06D1106840690843C7
:100C700014686061002010BD506A40F4802050620A
:100C80000120F8E7F0B504460D461E4694F82070A2
:100C900020688368A86800B900E000BF012F01D078
:100CA000022F7DD103F0806030B903F0006018B9E5
:100CB00003F0805000287ED0C3F3016101208840FA
:100CC0003060A86860B9B5F800C0E86840EA4C5CDC
:100CD000206800F5C07000EB0110C0F800C00FE004
:100CE000D5E901C040EACC00D5F80CC040EA0C00C0
:100CF000D4F800C00CF5C07C0CEB011CCCF8000053
:100D0000D5F810C0206800F5C07000EB0110C0F8E5
:100D100004C0287D01280ED1206800F5C07000EBCA
:100D20000110406840F4807C206800F5C07000EB42
:100D30000110C0F804C0D079000692F806C040EA5D
:100D40000C4092F805C040EA0C2092F804C040EA3A
:100D50000C00D4F800C00CF5C07C0CEB011CCCF8E6
:100D60000C00D078000692F802C040EA0C4092F8DD
:100D700001C040EA0C2092F800C040EA0C00D4F810
:100D800000C00CF5C07C0CEB011CCCF808002068FE
:100D900000F5C07000EB0110006840F0010C01E0AC
:100DA0000FE008E0206800F5C07000EB0110C0F80B
:100DB00000C00020F0BD606A40F4001060620120B5
:100DC000F8E7606A40F4802060620120F2E70000EA
:100DD000F0B504460A46216894F82050012D01D050
:100DE000022D7ED1424901F50071086840F00100F2
:100DF0000860086820F47C5008600868566A40EA79
:100E000006200860107D00F01F06012000FA06F39E
:100E1000C8699843C861A1F50071D069C8B9D1F813
:100E20000C029843C1F80C02908880B2968940EA7F
:100E3000064601F51070576940F83760108880B297
:100E4000168940EA064601F51070576900EBC700A5
:100E50004660D069012819D1D1F80C021843C1F8B5
:100E60000C02908880B2168840EA064601F51070A0
:100E7000576940F83760908980B2168940EA064683
:100E800001F51070576900EBC7004660906928B9FA
:100E9000D1F804029843C1F8040204E0D1F8040236
:100EA0001843C1F80402106928B9D1F81402984314
:100EB000C1F8140204E0D1F814021843C1F8140276
:100EC000106A012804D1D1F81C021843C1F81C0291
:100ED000D1F8000220F00100C1F800020020F0BDAE
:100EE000FFE7606A40F4802060620120F7E70000BD
:100EF00000640040704770B5044694F82050012DFE
:100F000001D0022D7DD151B92068C06800F00300E6
:100F100080B9606A40F400106062012070BD2068F2
:100F2000006900F0030028B9606A40F400106062B4
:100F30000120F3E7206800F5D87000EB011000688D
:100F400000F004009060906840B9206800F5D87007
:100F500000EB01100068400D106007E0206800F50C
:100F6000D87000EB01100068C0085060206800F5E0
:100F7000D87000EB0110006800F00200D06020681B
:100F800000F5D87000EB0110406800F00F00082851
:100F900002D30820106108E0206800F5D87000EB4B
:100FA0000110406800F00F001061206800F5D87053
:100FB00000EB0110406800F47F40000A9061206857
:100FC00000F5D87000EB01104068000C50612068FB
:100FD00000F5D87000EB011080681870206800F5EB
:100FE000D87000EB0110806800F47F40000A587050
:100FF000206800F5D87000EB0110806800F47F00D5
:1010000000E03CE0000C9870206800F5D87000EB20
:1010100001108068000ED870206800F5D87000EBD1
:101020000110C0681871206800F5D87000EB01103D
:10103000C06800F47F40000A5871206800F5D8703D
:1010400000EB0110C06800F47F00000C987120686C
:1010500000F5D87000EB0110C068000ED87131B9EE
:101060002068C06840F020002668F06005E0206835
:10107000006940F020002668306100204EE7606A79
:1010800040F480206062012048E72DE9F05F0446CB
:101090000025206846692068D0F804902068876899
:1010A0002068D0F80CA02068D0F810B02068D0F8E4
:1010B000188006F00100002855D007F00100C0B1EB
:1010C00001202168886007F0020018B1204600F076
:1010D00054FA0EE007F0040010B145F4006508E092
:1010E00007F0080010B145F4805502E0204600F0FA
:1010F00043FA07F48070C8B14FF4807021688860AB
:1011000007F4007018B1204600F039FA0EE007F439
:10111000806010B145F4005508E007F4006010B19C
:1011200045F4804502E0204600F028FA07F48030BC
:10113000C8B14FF480302168886007F4003018B1DE
:10114000204600F01EFA0EE007F4802010B145F4AE
:10115000004508E007F4002010B145F4803502E0B6
:10116000204600F00DFA06F0080038B10AF0100031
:1011700020B145F4007510202168C86006F0040015
:1011800040B10AF0080028B108202168C860204654
:1011900000F0B0F906F0020038B12068C06800F035
:1011A000030010B1204600F0A6F906F0400038B167
:1011B0000BF0100020B145F4806510202168086113
:1011C00006F0200040B10BF0080028B1082021688B
:1011D0000861204600F09EF906F0100038B1206842
:1011E000006900F0030010B1204600F094F906F405
:1011F000003040B109F0100028B11020216848608B
:10120000204600F089F906F4803040B109F008006A
:1012100028B1082021684860204600F0B3F906F4A0
:10122000004088B309F0040078B306F4807020B160
:1012300008F0010008B145F0010506F4007020B186
:1012400008F0020008B145F0020506F4806020B104
:1012500008F0040008B145F0040506F40060A0B1F0
:1012600008F0700088B108F07000402817D006DC44
:1012700010280BD020280CD0302819D10CE0502891
:1012800010D0602814D110E01DE019E045F00805E9
:101290000FE045F010050CE045F0200509E045F0B1
:1012A000400506E045F0800503E045F4807500E068
:1012B00000BF00BF2068806920F07000216888614D
:1012C0000420216848602DB1606A2843606220468E
:1012D000FFF710FEBDE8F09F70B504460CB9012081
:1012E00070BD94F8200010B9204600F0AFF82068D7
:1012F000006840F001002168086000F0ADFC054680
:101300000DE000F0A9FC401B0A2808D9606A40F4EF
:1013100000306062052084F820000120E0E72068AA
:10132000406800F001000028EBD02068006820F041
:1013300002002168086000F08FFC05460DE000F017
:101340008BFC401B0A2808D9606A40F400306062B8
:10135000052084F820000120C2E72068406800F0E2
:1013600002000028EBD1207E012806D12068006809
:1013700040F080002168086005E02068006820F0E7
:10138000800021680860607E012806D1206800681E
:1013900040F040002168086005E02068006820F007
:1013A000400021680860A07E012806D120680068FE
:1013B00040F020002168086005E02068006820F007
:1013C000200021680860E07E012806D120680068BE
:1013D00020F010002168086005E02068006840F0F7
:1013E000100021680860207F012806D1206800686D
:1013F00040F008002168086005E02068006820F0DF
:10140000080021680860607F012806D12068006814
:1014100040F004002168086005E02068006820F0C2
:10142000040021680860D4E90201084321690843E7
:10143000616908436168491E08432168C86100204A
:101440006062012084F82000002049E710B586B0D2
:101450000446142101A8FEF79DFF23492068884215
:101460003FD100BF002000902048006840F000708D
:101470001E4908600846006800F00070009000BF38
:1014800000BF00BF0020009018481038006840F0EE
:1014900008001649103908600846006800F0080086
:1014A000009000BF00BF03200190022002900020A6
:1014B0000390032004900920059001A90C4800F036
:1014C000C1FA00221146132001F09AF8132001F00E
:1014D00083F800221146142001F092F8142001F044
:1014E0007BF806B010BD00000064004040380240A8
:1014F000000C0240704710B58AB0044601AB03AA45
:1015000000212046FFF7F7FC01A903A8FFF7AEFA78
:101510000AB010BD70477047704770B5044694F824
:101520002000012822D1022084F8200020680068D1
:1015300020F001002168086000F08EFB05460DE0F8
:1015400000F08AFB401B0A2808D9606A40F400308A
:101550006062052084F82000012070BD206840688A
:1015600000F001000028EBD16062F6E7606A40F409
:10157000002060620120F0E77047704770477047B5
:1015800070477047704770B50446A56D00F064FB66
:10159000064694F83500022808D08020606500BF18
:1015A000002084F8340000BF012070BD206800686E
:1015B00020F01600216808602068406920F0800053
:1015C00021684861206C08B9A06C28B120680068C7
:1015D00020F00800216808602068006820F0010001
:1015E0002168086010E000F037FB801B05280BD94C
:1015F00020206065032084F8350000BF002084F8B7
:10160000340000BF0320D0E72068006800F001002C
:101610000028E8D194F85C103F208840A8600120A1
:1016200084F8350000BF002084F8340000BF00BFFC
:10163000BBE7014691F83500022803D080204865B9
:1016400001207047052081F835000868006820F007
:1016500001000A6810600020F3E70000F8B50446B6
:10166000002000908C4800684FF41651B0FBF1F751
:10167000A56D2E6894F85C1008208840304098B121
:101680002068006800F0040070B12068006820F055
:1016900004002168086094F85C1008208840A86065
:1016A000606D40F00100606594F85C100120884096
:1016B000304068B12068406900F0800040B194F883
:1016C0005C1001208840A860606D40F002006065F9
:1016D00094F85C1004208840304068B120680068AD
:1016E00000F0020040B194F85C1004208840A8602B
:1016F000606D40F00400606594F85C101020884034
:10170000304078B32068006800F0080050B394F8C7
:101710005C1010208840A8602068006800F48020D9
:1017200080B12068006800F4002028B9206CC8B19E
:101730002046216C884715E0A06C98B12046A16C2A
:1017400088470FE02068006800F4807028B920689E
:10175000006820F0080021680860206C10B1204665
:10176000216C884794F85C10202088403040002885
:1017700065D02068006800F0100000285FD094F861
:101780005C1020208840A86094F83500052828D1F6
:101790002068006820F01600216808602068406911
:1017A00020F0800021684861206C08B9A06C28B145
:1017B0002068006820F008002168086094F85C1038
:1017C0003F208840A860012084F8350000BF002039
:1017D00084F8340000BF206D10B12046216D884789
:1017E000F8BD2068006800F4802080B1206800689F
:1017F00000F4002028B9606C10B12046616C884765
:101800001DE0E06BD8B12046E16B884717E0206807
:10181000006800F4807068B92068006820F010004B
:1018200021680860012084F8350000BF002084F89A
:10183000340000BFE06B10B12046E16B8847606D5B
:1018400038B3606D00F00100F0B1052084F8350078
:101850002068006820F001002168086000BF00983F
:10186000401C0090B84200D905E02068006800F0F4
:1018700001000028F3D100BF012084F8350000BF2B
:10188000002084F8340000BFE06C10B12046E16C09
:10189000884700BFA4E70000080100202DE9F041BF
:1018A0000446002500F0D8F9074614B90120BDE828
:1018B000F081606A00B100BF022084F8350000BFEB
:1018C000002084F8340000BF2068006820F0010088
:1018D000216808600AE000F0BFF9C01B052805D99F
:1018E00020206065032084F83500E0E72068006868
:1018F00000F001000028EED120680568214805406D
:10190000D4E901010843E16808432169084361699A
:101910000843A1690843E1690843216A0843054374
:10192000606A042803D1D4E90B0108430543206809
:1019300005602068456925F00705606A0543606A0F
:1019400004280DD1A06A0543E06A48B12046FFF79C
:1019500015F928B140206065012084F83500A6E71C
:10196000206845612046FFF7EFF8064694F85C10C2
:101970003F208840B06000206065012084F8350079
:10198000002094E73F8010F02DE9F04704460D4613
:1019900016461F464FF00008D4F8589000BF94F840
:1019A0003400012802D10220BDE8F087012084F82C
:1019B000340000BF94F83500012825D1022084F8B6
:1019C0003500002060653B46324629462046FFF739
:1019D0002AF994F85C103F208840C9F80800206874
:1019E000006840F0160021680860206C28B120686B
:1019F000006840F00800216808602068006840F036
:101A000001002168086006E000BF002084F834006F
:101A100000BF4FF002084046C6E7000070B504461C
:101A200000F01AF906462546681C10B104480078F3
:101A3000054400BF00F010F9801BA842FAD370BD26
:101A400004010020F8B502460B46002500240020C2
:101A50000021D6E0012606FA01F51E6806EA050413
:101A6000AC4274D11E7906F00306012E04D01E7913
:101A700006F00306022E13D190684F000326BE40E5
:101A8000B0434F00DE68BE4030439060506801268E
:101A90008E40B0431E79C6F300168E40304350602E
:101AA0001E7906F00306032E09D0D0684F000326E6
:101AB000BE40B0434F009E68BE403043D0601E79A8
:101AC00006F00306022E13D1CF0802F1200656F8C5
:101AD00027004E07F70E0F26BE40B0434F07FF0EFC
:101AE0001E69BE403043CF0802F1200646F82700A9
:101AF00010684F000326BE40B0431E7906F003066F
:101B00004F00BE40304310605E6806F44036002E41
:101B100076D000BF002600963C4E366846F48046DC
:101B20003A4F3E603E46366806F48046009600BF57
:101B300000BF374E8F0856F827008E07370F0F2645
:101B4000BE40B043334EB24202D1002624E057E0FB
:101B5000314EB24201D101261EE0304EB24201D1D7
:101B6000022619E02E4EB24201D1032614E02D4E7A
:101B7000B24201D104260FE02B4EB24201D105261C
:101B80000AE02A4EB24201D1062605E0284EB242B2
:101B900001D1072600E008268F073F0FBE403043E3
:101BA0001B4E8F0846F82700224E3068A0435E681F
:101BB00006F4801606B120431E4E3060361D306894
:101BC000A0435E6806F4001606B12043194E361D88
:101BD0003060184E361F3068A0435E6806F4003649
:101BE00006B12043134E361F3060361F3068A043C5
:101BF0005E6806F4803606B120430E4E083E306023
:101C0000491C1029FFF426AFF8BD000044380240FB
:101C10000838014000000240000402400008024071
:101C2000000C024000100240001402400018024064
:101C3000001C0240083C014010B5426921EA020341
:101C400002EA010443EA0443836110BD0AB18161E1
:101C500001E00B0483617047014800687047000091
:101C6000FC00002070B504460CB9012070BD94F84A
:101C70003D0028B9002084F83C00204600F0F4FB29
:101C8000242084F83D002068006820F001002168CD
:101C900008602068006840F40040216808602068FF
:101CA000006820F400402168086000F0C3FD05468C
:101CB0005C496068884206D85B48854201D20120B1
:101CC00007E0002005E05948854201D2012000E0EC
:101CD0000020012800D1C9E75548B5FBF0F620687F
:101CE000406820F03F003043216848604D496068FB
:101CF000884201D8701C07E04FF4967070434FF48F
:101D00007A71B0FBF1F0401C2168096A21F03F01B3
:101D100008432168086243496068884214D8681EF5
:101D200061684900B0FBF1F0401CC0F30B000428CF
:101D300001D204203DE0681E61684900B0FBF1F06B
:101D4000401CC0F30B0034E0A06838B9681E61681D
:101D500001EB4101B0FBF1F0401C0AE0681E616834
:101D600001EBC10202EB0111B0FBF1F0401C40F4A9
:101D70008040C0F30B0008B901201AE0A06848B900
:101D8000681E616801EB4101B0FBF1F0401CC0F33B
:101D90000B000CE0681E616801EBC10202EB01114F
:101DA000B0FBF1F0401CC0F30B0040F4804040F465
:101DB00000402168C9694CF6FF72914308432168CD
:101DC000C861D4E9070108432168096821F0C0010E
:101DD000084321680860D4E9031008432168896832
:101DE00048F2FF329143084321688860D4E9050135
:101DF00008432168C96821F0FF0108432168C860D1
:101E00002068006840F0010021680860002020641C
:101E1000202084F83D000020206384F83E0000BFAD
:101E200024E70000A086010080841E0000093D0018
:101E300040420F002DE9F84F04460F4690461E46DB
:101E4000FFF70AFF05464FF0000994F83D002028EF
:101E50007ED11923012263492046009501F0DDFE61
:101E600010B10220BDE8F88F00BF94F83C000128B3
:101E700001D10220F6E7012084F83C0000BF206871
:101E8000006800F0010028B92068006840F00100F7
:101E9000216808602068006820F4006021680860FC
:101EA000242084F83D00002020644F48E06200BFF9
:101EB0002068006840F48070216808603346002282
:101EC0004FF001112046009501F0A7FE58B120689F
:101ED000006800F48070B0F5807F02D14FF400708C
:101EE00020640320BEE707F0FE0021680861FFF7C9
:101EF000B3FE054620684069C0F3400A2068406987
:101F0000C0F3802B10E0FFF7A7FE401BB04200D8C3
:101F100016B9A02084F83D0020684069C0F3400A4B
:101F200020684069C0F3802B94F83D00A02805D0BC
:101F3000BAF1000F02D1BBF1000FE4D0202084F8E9
:101F40003D0020684069C0F3400028B3206800E0ED
:101F500045E0006840F400702168086000BF002080
:101F6000009020684069009020688069009000BF60
:101F700000BF192301221B492046009501F04DFEA8
:101F800008B101206EE7202084F83D0000BF00204A
:101F900084F83C0000BF65E72068006840F40070EA
:101FA000216808606FF4806021684861192301226C
:101FB0000C492046009501F030FE08B1012051E7A0
:101FC00009F10109C145FFF473AF202084F83D00F9
:101FD00000BF002084F83C0000BF012042E702203F
:101FE00040E70000020010000000FFFF2DE9F84369
:101FF0000446894617469846089EFFF72DFE05467B
:1020000094F83D0020287DD119230122B7492046AC
:10201000009501F002FE10B10220BDE8F88300BF78
:1020200094F83C00012801D10220F6E7012084F851
:102030003C0000BF2068006800F0010028B920685B
:10204000006840F00100216808602068006820F402
:10205000006021680860222084F83D00102084F888
:102060003E00002020646762A4F82A80608D2085ED
:102070009F48E0622B4632464946204601F09EFCCE
:1020800008B10120C9E7208D88B900BF0020009069
:1020900020684069009020688069009000BF00BF00
:1020A0002068006840F400702168086047E0208DD7
:1020B000012817D12068006820F48060216808603A
:1020C00000BF00200090206840690090206880696F
:1020D000009000BF00BF2068006840F400702168D5
:1020E00008602CE0208D022818D12068006820F4B8
:1020F0008060216808602068006840F40060216802
:10210000086000E0EFE000BF002000902068406918
:10211000009020688069009000BF10E0206800688F
:1021200040F480602168086000BF002000902068B3
:102130004069009020688069009000BF00BFC3E044
:10214000208D03287ED8208D012815D12A463146BE
:10215000204601F03EFE08B101205EE720680069DC
:10216000616A0870606A401C6062208D401E208594
:10217000608D401E6085A7E0208D02282AD133465D
:1021800000225C492046009501F047FD08B101207E
:1021900043E72068006840F4007021680860206808
:1021A0000069616A0870606A401C6062208D401E90
:1021B0002085608D401E608520680069616A087016
:1021C000606A401C6062208D401E2085608D401E2C
:1021D000608579E03346002246492046009501F0AB
:1021E0001CFD08B1012018E72068006820F4806019
:1021F0002168086020680069616A0870606A401C94
:102200006062208D401E2085608D401E60853346B3
:10221000002238492046009501F0FFFC08B101205A
:10222000FBE62068006840F40070216808602068C0
:102230000069616A0870606A401C6062208D401EFF
:10224000208500E010E0608D401E608520680069F8
:10225000616A0870606A401C6062208D401E2085A3
:10226000608D401E60852FE02A463146204601F0F1
:10227000B0FD08B10120D0E620680069616A0870ED
:10228000606A401C6062208D401E2085608D401E6B
:10229000608520684069C0F38000A8B1208D0328C4
:1022A00005D12068006820F48060216808602068FB
:1022B0000069616A0870606A401C6062208D401E7F
:1022C0002085608D401E6085208D00287FF438AF0A
:1022D000202084F83D00002084F83E0000BF84F8F0
:1022E0003C0000BF99E6022097E6000002001000C3
:1022F0000000FFFF040001002DE9F8430446894671
:1023000016461F46DDF82080FFF7A6FC054694F828
:102310003D0020287ED119230122514920460095F5
:1023200001F07BFC10B10220BDE8F88300BF94F8F7
:102330003C00012801D10220F6E7012084F83C008E
:1023400000BF2068006800F0010028B9206800681C
:1023500040F00100216808602068006820F40060F7
:1023600021680860212084F83D00102084F83E0098
:102370000020206466626785608D20853948E062B0
:102380002B4642464946204601F0B4FB08B10120E5
:10239000CAE700BF002000902068406900902068D4
:1023A0008069009000BF00BF44E02A4641462046B5
:1023B00001F054FD50B1206C042805D1206800685C
:1023C00040F40070216808600120ADE7606A007881
:1023D00021680861606A401C6062608D401E6085F3
:1023E000208D401E208520684069C0F3800070B1B8
:1023F000208D60B1606A007821680861606A401CC5
:102400006062608D401E6085208D401E20852A46BA
:10241000414600E022E0204601F0CCFB50B1206CA8
:10242000042805D12068006840F400702168086025
:10243000012079E7208D0028B7D12068006840F49A
:10244000007021680860202084F83D00002084F896
:102450003E0000BF84F83C0000BF65E7022063E750
:10246000020010000000FFFF10B586B004461421E2
:1024700001A8FDF78FFF1B49206888422FD100BFBC
:10248000002000901848006840F0200016490860BD
:102490000846006800F02000009000BF00BF032045
:1024A0000190122002900020039003200490042049
:1024B000059001A90D48FFF7C5FA00BF0020009064
:1024C00009481030006840F4800007491031086066
:1024D0000846006800F48000009000BF00BF06B00E
:1024E00010BD000000580040303802400014024087
:1024F00003480068034909780844014908607047A7
:10250000FC0000200401002010B50D48006840F4D4
:1025100000700B4908600846006840F4806008605D
:102520000846006840F480700860032000F0A6F8B8
:102530000F2000F007F800F02BF8002010BD00007D
:10254000003C024070B504460E4800784FF47A71A2
:10255000B1FBF0F00C490968B1FBF0F5284600F03A
:102560002FFC08B1012070BD102C07D2002221469B
:10257000501E00F045F80548046001E00120F2E734
:102580000020F0E7040100200801002000010020E5
:1025900008B500BF002000900E48006840F480405D
:1025A0000C4908600846006800F48040009000BFB5
:1025B00000BF00BF00200090081F006840F080505E
:1025C000091F08600846006800F08050009000BFB6
:1025D00000BF08BD443802400146084600280DDB14
:1025E00000BF00BF00F01F0301229A4043099B0077
:1025F00003F1E023C3F8002100BF00BF00BF704714
:102600002DE9F05F80460D461646002703F050F98D
:10261000074639462A46334601F00700C0F1070A4B
:10262000BAF1040F02D94FF0040A01E0C0F1070A21
:10263000D14600F1040ABAF1070F02D24FF0000AA6
:1026400001E0A0F1030AD4464FF0010A0AFA09FAA0
:10265000AAF1010A0AEA020A0AFA0CFA4FF0010B7F
:102660000BFA0CFBABF1010B0BEA030B4AEA0B0470
:102670002146404603F024F9BDE8F09F00BF00F07A
:102680000702064B19684FF6FF031940044B0B4332
:1026900043EA0221014B196000BF70470CED00E0D6
:1026A0000000FA0570B504460D460CB9012070BD56
:1026B0005848006800F00700A84209D255490D703B
:1026C0000846006800F00700A84201D00120EEE7AC
:1026D000207800F0020002281DD1207800F00400CC
:1026E000042805D14C48006840F4E0504A4908608D
:1026F000207800F00800082805D14748006840F419
:102700006040454908604448006820F0F000A16836
:10271000084341490860207800F00100A8B36068D0
:10272000012807D13C4808380068C0F34040B8B9D8
:102730000120BCE76068022802D06068032807D146
:10274000354808380068C0F3406048B90120AEE75A
:10275000314808380068C0F3400008B90120A6E7F6
:102760002D48006820F00300616808432A4908608A
:10277000FFF772FA064609E0FFF76EFA801B41F296
:102780008831884202D9032091E707E02248006897
:1027900000F00C006168B0EB810FEDD11D480068BE
:1027A00000F00700A84209D91A490D7008460068D0
:1027B00000F00700A84201D0012078E7207800F05F
:1027C0000400042807D11448006820F4E050E168B0
:1027D000084311490860207800F00800082808D153
:1027E0000D48006820F46040216940EAC1000A49B0
:1027F000086000F03FF808490968C1F30311074A6F
:10280000515CC8400649086006480068FFF79AFE18
:1028100000204CE7003C0240083802407471000878
:1028200008010020000100200148006870470000F6
:102830000801002000B5FFF7F7FF04490968C1F35C
:102840008221034A515CC84000BD000008380240A4
:102850008471000800B5FFF7E7FF04490968C1F378
:102860004231034A515CC84000BD000008380240B4
:10287000847100082DE9F047002400250026A146B8
:102880002548006800F00C0020B1042805D0082875
:102890003AD105E0DFF8849039E0DFF8849036E043
:1028A0001D48001F006800F03F041B48001F00681F
:1028B00000F4800078B11A481749091F0968C1F36C
:1028C0008811A0FB01700146224600233846FDF71F
:1028D000D3FC05460EE011480F49091F0968C1F3F2
:1028E0008811A0FB01700146224600233846FDF7FF
:1028F000C3FC05460848001F0068C0F30140401CA7
:102900004600B5FBF6F902E0DFF8109000BF00BF0B
:102910004846BDE8F0870000083802400024F40073
:10292000001BB700F8B504460CB90120F8BD2078AB
:1029300000F00100002874D0F948006800F00C0095
:1029400004280DD0F648006800F00C00082813D1C8
:10295000F348001F006800F48000B0F5800F0BD131
:10296000EF4808380068C0F34040002859D060683C
:10297000002856D10120D9E700BF6068B0F5803F3C
:1029800008D1E7480838006840F48030E449083945
:1029900008601EE06068B0F5A02F0DD1E04808384F
:1029A000006840F48020DE49083908600846006865
:1029B00040F4803008600CE0D9480838006820F402
:1029C0008030D749083908600846006820F4802024
:1029D000086000BF606890B1FFF73EF9054606E069
:1029E000FFF73AF9401B642801D903209EE7CC4841
:1029F00008380068C0F340400028F1D011E0FFF72C
:102A00002BF9054606E0FFF727F9401B642801D99A
:102A100003208BE7C24808380068C0F34040002814
:102A2000F1D1207800F0020002285FD1BC48006894
:102A300000F00C0058B1BA48006800F00C000828FB
:102A40001CD1B748001F006800F48000B0B9B4483A
:102A500008380068C0F3400020B1E068012801D0C8
:102A6000012063E7AE480838006820F0F8002169CB
:102A700040EAC100AA490839086037E0E06800B3BD
:102A80000120A8490860FFF7E7F8054606E0FFF7D0
:102A9000E3F8401B022801D9032047E7A048083883
:102AA0000068C0F340000028F1D09D480838006855
:102AB00020F0F800216940EAC1009949083908600E
:102AC00014E0002097490860FFF7C6F8054606E0C5
:102AD000FFF7C2F8401B022801D9032026E79048DF
:102AE00008380068C0F340000028F1D1207800F0D9
:102AF000080008282CD16069A8B101208A49086023
:102B0000FFF7AAF8054606E0FFF7A6F8401B0228E3
:102B100001D903200AE782486C300068C0F3400006
:102B20000028F1D014E000207F490860FFF794F8F6
:102B3000054606E0FFF790F8401B022801D9032064
:102B4000F4E677486C300068C0F340000028F1D10B
:102B5000207800F00400042870D100277048383035
:102B6000006800F0805090B900BF002000906C48D1
:102B70003830006840F080506949383108600846B4
:102B8000006800F08050009000BF00BF0127674838
:102B9000006800F48070B0B96448006840F4807048
:102BA00062490860FFF758F8054606E0FFF754F859
:102BB000401B022801D90320B8E65C48006800F4F5
:102BC00080700028F2D000BFA068012808D15448C6
:102BD0006830006840F001005149683108601DE02C
:102BE000A06805280DD14E486830006840F0040008
:102BF0004B49683108600846006840F001000860F1
:102C00000CE047486830006820F001004449683112
:102C100008600846006820F00400086000BFA06853
:102C2000A8B1FFF719F8054609E0FFF715F8401BB2
:102C300041F28831884202D9032077E626E03848FD
:102C400068300068C0F340000028EED013E0FFF7C2
:102C500003F8054608E0FEF7FFFF401B41F288310C
:102C6000884201D9032061E62D4868300068C0F32E
:102C700040000028EFD1012F07D1294838300068E3
:102C800020F0805026493831086000BFA069002834
:102C900045D02348006800F00C0008285DD0A069EA
:102CA000022845D100201F490866FEF7D5FF0546DA
:102CB00006E0FEF7D1FF401B022801D9032035E6CC
:102CC000174808380068C0F340600028F1D1D4E903
:102CD00007010843616A40EA81110122A06AC2EB40
:102CE000500041EA00412C20005D41EA00600C499F
:102CF000091F086001200B490866FEF7ADFF054675
:102D000006E0FEF7A9FF401B022801D903200DE6CB
:102D1000034808380068C0F340600028F1D049E05B
:102D20000838024000004742800E474200700040D1
:102D3000002021490866FEF78FFF054606E0FEF7F2
:102D40008BFF401B022801D90320EFE51B480068D8
:102D5000C0F340600028F2D12CE0A069012800D126
:102D6000E4E51648001D0668A069012820D006F495
:102D70008001E06981421BD106F03F01206A814257
:102D800016D147F6C0703040616AB0EB811F0FD199
:102D900006F440310122A06AC2EB5000B1EB004FB3
:102DA00006D106F070612C20005DB1EB006F01D000
:102DB0000120BBE50020B9E5000047420038024091
:102DC00070B504462546681EB0F1807F01D301200E
:102DD0000FE0681E4FF0E02148610F214FF0FF30F7
:102DE00002F06EFD00204FF0E021886107200861AD
:102DF000002070BD7047704730B502460B4600BFDB
:102E000092F83C00012801D1022030BD012082F857
:102E10003C0000BF022082F83D0010684468106842
:102E2000816824F070041868044310684460184DE9
:102E30001068A8421BD01068B0F1804F17D0154D14
:102E40001068A84213D0144D1068A8420FD0134D3B
:102E50001068A8420BD0124D1068A84207D0114D3F
:102E60001068A84203D0104D1068A84205D121F087
:102E700080015868014310688160012082F83D009C
:102E800000BF002082F83C0000BF00BFBDE700008B
:102E9000000001400004004000080040000C004019
:102EA00000040140004001400018004010B50446F5
:102EB0000CB9012010BD94F83D0028B9002084F819
:102EC0003C00204600F026F8022084F83D00211D39
:102ED000206801F037FE012084F8460000BF84F826
:102EE0003E0001213F200155402001554120015560
:102EF00000BF00BF012084F8420043200155442058
:102F000001554520015500BF012084F83D000020F7
:102F1000D0E7000038B504461A49206888422FD10E
:102F200000BF002000901848006840F001001649DA
:102F300008600846006800F00100009000BF00BF74
:102F4000002211461820FFF75BFB1820FFF744FB17
:102F5000002211461920FFF753FB1920FFF73CFB15
:102F6000002211461A20FFF74BFB1A20FFF734FB13
:102F7000002211461B20FFF743FB1B20FFF72CFB11
:102F800038BD00000000014044380240014691F87D
:102F90003D00012801D001207047022081F83D004A
:102FA0000868C06840F001000B68D8601A4B0868D8
:102FB00098421BD00868B0F1804F17D0174B0868B3
:102FC000984213D0164B086898420FD0154B0868EA
:102FD00098420BD0144B0868984207D0134B0868EE
:102FE000984203D0124B086898420CD10868806858
:102FF00000F00702062A0CD00868006840F00100C3
:103000000B68186005E00868006840F001000B6874
:1030100018600020C0E700000000014000040040EC
:1030200000080040000C0040000401400040014046
:10303000001800402DE9F04104460D46002700BF6E
:1030400094F83C00012802D10220BDE8F081012063
:1030500084F83C0000BF022084F83D0020688668A8
:1030600026F0770626F47F46206886602868502878
:1030700033D00CDC202850D004DC00284BD01028A2
:1030800051D149E0302849D040284CD139E060285E
:103090002DD0702807D0B0F5805F03D0B0F5005F69
:1030A00041D10DE041E0D5E902136A68206801F0E2
:1030B000BDFD2068866846F077062068866034E0AB
:1030C000D5E902136A68206801F0B0FD20688068C5
:1030D00040F480402168886027E0EA6869682068D9
:1030E00001F0B8FD5021206801F0ABFD1DE0EA6859
:1030F0006968206801F0C1FD6021206801F0A1FD30
:1031000013E0EA686968206801F0A4FD40212068A6
:1031100001F097FD09E000BF00BF00BF29682068EB
:1031200001F08FFD01E0012700BF00BF012084F8FE
:103130003D0000BF002084F83C0000BF384684E713
:10314000704770B504462068C5682068066906F0B7
:103150000200022819D105F00200022815D1401FF3
:1031600021680861012020772068806900F0030051
:1031700018B12046FFF7E4FF05E0204600F097F87D
:10318000204600F095F80020207706F0040004287F
:1031900019D105F00400042815D1C0432168086145
:1031A000022020772068806900F4407018B1204622
:1031B000FFF7C6FF05E0204600F079F8204600F052
:1031C00077F80020207706F00800082819D105F0CC
:1031D0000800082815D1C043216808610420207721
:1031E0002068C06900F0030018B12046FFF7A8FF6F
:1031F00005E0204600F05BF8204600F059F800207A
:10320000207706F01000102819D105F010001028C2
:1032100015D1C04321680861082020772068C06963
:1032200000F4407018B12046FFF78AFF05E0204601
:1032300000F03DF8204600F03BF80020207706F033
:10324000010048B105F0010030B16FF001002168C4
:103250000861204600F02EF806F08000802809D191
:1032600005F08000802805D1C04321680861204610
:10327000FFF7C0FD06F04000402809D105F04000EE
:10328000402805D1C04321680861204600F04AF873
:1032900006F02000202809D105F02000202805D1C3
:1032A000C043216808612046FFF7A5FD70BD704747
:1032B0007047000010B5044615492068884226D1A1
:1032C0001448007820B9C9141348FEF7B5FC07E08C
:1032D00010480078012803D101031048FEF7ACFC28
:1032E0000F480078012801D102F0A4FD0C480078B5
:1032F00008B902F063FD0A480078022801D102F003
:1033000097FD07480078032801D102F087FD10BD22
:1033100000000140C000002000100240001C0240DC
:103320000C0000207047F8B504460E46174694F886
:10333000420020282ED106B10FB90120F8BD01208E
:103340002063002060633A463146204601F034FF96
:103350000546EDB9206B012819D100BF002000906F
:1033600020680068009020684068009000BF00BF9F
:1033700000BF00BF21680C3151E8001F41F0100070
:1033800021680C3141E80002002AF3D100E0012558
:103390002846D3E70220D1E7624B02689A427DD1EA
:1033A000614A1278604B5B7842EA0322C2F30A0258
:1033B0005E4B1A801A461288A2F5806212B21A80F9
:1033C000594A5278D210584B9B7842EA4312C2F3C2
:1033D0000A02564B5A801A465288A2F5806212B2EF
:1033E0005A80514A927892114F4BDB7842EA83021D
:1033F0004D4B1B7942EA8322C2F30A024B4B9A805F
:103400001A469288A2F5806212B29A80464A1279D0
:103410005210454B5B7942EAC312C2F30A02434B96
:10342000DA801A46D288A2F5806212B2DA801A4691
:10343000B2F90020052A07DC1A46B2F9002012F181
:10344000050F01DB00221A80384AB2F90220052A52
:1034500008DC364AB2F9022012F1050F02DB002225
:10346000324B5A80314AB2F90420052A08DC2F4A2F
:10347000B2F9042012F1050F02DB00222B4B9A80D7
:103480002A4AB2F90620052A0ADC284AB2F906209F
:1034900012F1050F04DB0022244B00E041E0DA804A
:1034A000214A527912119208204B1A721E4A5279FF
:1034B000C2F301125A721C4A92791B4BDB7942EA21
:1034C000032212B2194B5A81174A127A164B5B7AB1
:1034D00042EA032213B2154A9381134A927A124B9D
:1034E000DB7A42EA032213B2104AD3810E4A137BDD
:1034F0000E4A13740C4A537B0C4A53740A4A927B4B
:10350000094BDB7B42EA0322084B5A82064A127CB3
:10351000054B5B7C42EA0322A2F5806212B2034BA8
:103520009A82704700480040780200209C020020E8
:10353000704700002DE9F84F0446206805682068B0
:10354000C668206847694FF00009CA4605F00F09B0
:10355000B9F1000F0AD105F0200038B106F02000C3
:1035600020B1204601F094FCBDE8F88FB9F1000FBE
:103570007CD007F0010018B906F49070002875D0CF
:1035800005F0010030B106F4807018B1606C40F0B5
:103590000100606405F0040030B107F0010018B1CB
:1035A000606C40F00200606405F0020030B107F08A
:1035B000010018B1606C40F00400606405F0080080
:1035C00048B106F0200010B907F0010018B1606C96
:1035D00040F008006064606C002846D005F02000D0
:1035E00028B106F0200010B1204601F051FC2068FF
:1035F0004069C0F3801A606C00F0080010B9BAF19D
:10360000000F2DD0204601F0EAFB2068406900F051
:103610004000402820D100BF00BF2168143151E88C
:10362000001F21F040002168143141E80002002A07
:10363000F3D100BFE06B50B17748E16B0865E06BF8
:10364000FDF7F7FF88B1E06B016D88470DE020467C
:10365000FFF76EFF09E009E02046FFF769FF04E08D
:103660002046FFF765FF002060647DE7206B01289E
:1036700078D105F01000002874D006F01000002862
:10368000FAD000BF002000902068006800902068F9
:103690004068009000BF00BF2068406900F0400013
:1036A000402860D1E06B006840681FFA80F8B8F1EC
:1036B000000F56D0A08D404553DDA4F82E80E06B5E
:1036C000C069B0F5807F43D000BF00BF21680C31D6
:1036D00051E8001F21F4807021680C3141E800029C
:1036E000002AF3D100BF00BF00BF2168143151E8A8
:1036F000001F21F001002168143141E80002002A76
:10370000F3D100BF00BF00BF2168143151E8001F92
:1037100021F040002168143141E80002002AF3D171
:1037200000BF202084F842000020206300BF00BFBB
:1037300021680C3151E8001F21F0100021680C3184
:1037400041E80002002AF3D100BFE06BFDF71BFF48
:1037500002206063A08DE28D801A81B22046FFF7BF
:103760001BFE01E742E0A08DE18D401A1FFA80F8B0
:10377000E08DD0B3B8F1000F37D000BF00BF216893
:103780000C3151E8001F21F4907021680C3141E8A0
:103790000002002AF3D100BF00BF00BF216814312E
:1037A00051E8001F21F001002168143141E80002B6
:1037B000002AF3D100BF202084F8420000202063BB
:1037C00000BF00BF21680C3151E8001F21F010003C
:1037D00021680C3141E80002002AF3D100BF022029
:1037E000606341462046FFF7D7FDBDE605F0800047
:1037F00030B106F0800018B1204601F041FDB3E67B
:1038000005F0400030B106F0400018B1204601F04C
:103810001CFBA9E600BFA7E6A34C000810B50446B0
:103820000CB9012010BDA06900B100E000BF94F800
:10383000410028B9002084F84000204600F02AF812
:10384000242084F841002068C06820F400502168DA
:10385000C860204601F09AFB2068006920F490407F
:10386000216808612068406920F02A0021684861C9
:103870002068C06840F400502168C860002060647F
:10388000202084F8410084F842000020606300BFDB
:10389000C8E7000010B586B00446142101A8FCF763
:1038A00079FD2F492068884258D100BF0020009040
:1038B0002C48006840F480202A49086008460068C7
:1038C00000F48020009000BF00BF00BF00200090E7
:1038D00024481038006840F004002249103908607C
:1038E0000846006800F00400009000BF00BF4FF4DD
:1038F0004060019002200290002003900320049079
:103900000720059001A91848FEF79CF817481849A8
:1039100008604FF000604860002115488160C16078
:103920004FF4806101610021416181614FF4807138
:10393000C161002101624162FDF7B0FF08B1FDF7EE
:1039400089F900BF0A48E063846300BF0022114682
:103950002720FEF755FE2720FEF73EFE06B010BDDD
:103960000048004040380240000802402860024001
:10397000B005002070477047704700BFFEE7014662
:1039800008684069C0F38020B0B16FF480600A68B5
:10399000506100200863202081F83D00002081F85C
:1039A0003E00086C40F00400086400BF002081F86D
:1039B0003C0000BF012070470020FCE72DE9F843E0
:1039C00004460D4690461E46E76A2068006840F4AB
:1039D000806021680860082F04D0012F02D017F5FD
:1039E000803F06D12068006840F48070216808603C
:1039F00008E0206B112805D12068006840F4807031
:103A000021680860434600224FF0011120460096CD
:103A100000F003F960B12068006800F48070B0F530
:103A2000807F02D14FF4007020640320BDE8F8834A
:103A30002069B0F5804F05D1E8B240F0010021685F
:103A4000086149E005F44070F02141EAE010216886
:103A50000861334642462649204600F03DF908B148
:103A60000120E3E7E8B22168086133464246204975
:103A7000891F204600F030F908B10120D6E700BFC9
:103A800000200090206840690090206880690090C4
:103A900000BF00BF2068006840F4807021680860A3
:103AA000434600224FF001112046009600F0B5F881
:103AB00058B12068006800F48070B0F5807F02D1B2
:103AC0004FF4007020640320B0E705F44070F1214A
:103AD00041EAE01021680861334642460449891FE3
:103AE000204600F0F9F808B101209FE700209DE78B
:103AF000080001002DE9F84304460D461746984694
:103B0000E66A082E04D0012E02D016F5803F06D1B9
:103B10002068006840F480702168086008E0206B2D
:103B2000122805D12068006840F480702168086080
:103B30003B4600224FF001112046CDF8008000F0F6
:103B40006CF860B12068006800F48070B0F5807F88
:103B500002D14FF4007020640320BDE8F88320698F
:103B6000B0F5804F04D105F0FE002168086112E035
:103B700005F44070F02141EAE010216808614346F5
:103B80003A460B49204600F0A7F808B10120E4E7C7
:103B9000E8B22168086143463A460549891F204634
:103BA00000F09AF808B10120D7E70020D5E700001F
:103BB0000800010070B504460D46164625E0204673
:103BC000FFF7DDFE08B1012070BD681CE8B1FEF70B
:103BD00043F8801BA84200D8BDB920684069C0F3F3
:103BE000800090B900202063202084F83D00002050
:103BF00084F83E00206C40F02000206400BF0020CC
:103C000084F83C0000BF0120DEE720684069C0F373
:103C100080000028D3D00020D6E72DE9F0410446EB
:103C20000D4617461E46DDF8188038E0701CA8B314
:103C3000FEF712F8A0EB0800B04200D876BBC5F33F
:103C4000074001280AD120684069A9B20840A9B2FA
:103C5000884201D101200BE0002009E02068806942
:103C6000A9B20840A9B2884201D1012000E0002099
:103C7000B84214D100202063202084F83D000020A9
:103C800084F83E00206C40F02000206400BF00203B
:103C900084F83C0000BF0120BDE8F081FFE7C5F3D8
:103CA000074001280AD120684069A9B20840A9B29A
:103CB000884201D101200BE0002009E020688069E2
:103CC000A9B20840A9B2884201D1012000E0002039
:103CD000B842ABD00020DFE72DE9F04104460D46A5
:103CE00016461F4658E020684069C0F38020E8B1BE
:103CF0002068006840F40070216808606FF48060FC
:103D00002168486100202063202084F83D000020C5
:103D100084F83E00206C40F00400206400BF0020C6
:103D200084F83C0000BF0120BDE8F081701C90B316
:103D3000FDF792FFC01BB04200D866BBC5F3074039
:103D400001280AD120684069A9B20840A9B2884276
:103D500001D101200BE0002009E020688069A9B2B0
:103D60000840A9B2884201D1012000E0002090B9AA
:103D700000202063202084F83D00002084F83E00CD
:103D8000206C40F02000206400BF002084F83C003C
:103D900000BF0120C8E7FFE7C5F3074001280AD1AB
:103DA00020684069A9B20840A9B2884201D1012027
:103DB0000BE0002009E020688069A9B20840A9B2A0
:103DC000884201D1012000E0002000288BD0002093
:103DD000AAE770B504460D46164637E020684069EC
:103DE000C0F30010A0B16FF01000216848610020FE
:103DF0002063202084F83D00002084F83E00206CE1
:103E0000206400BF002084F83C0000BF012070BD8A
:103E1000FDF722FF801BA84200D8BDB92068406989
:103E2000C0F3801090B900202063202084F83D006A
:103E3000002084F83E00206C40F02000206400BF89
:103E4000002084F83C0000BF0120E0E720684069C2
:103E5000C0F380100028C1D00020D8E770B5044618
:103E60000D46164625E02046FFF789FD08B10120E2
:103E700070BD681CE8B1FDF7EFFE801BA84200D8BA
:103E8000BDB920684069C0F3C01090B9002020631C
:103E9000202084F83D00002084F83E00206C40F093
:103EA0002000206400BF002084F83C0000BF0120F7
:103EB000DEE720684069C0F3C0100028D3D000209E
:103EC000D6E730B5039CC5880581C1800280438058
:103ED000047130BD10B50F480F49086006204860D6
:103EE00000210D488160C1604FF40031016109017A
:103EF0004161002101760121417600218176C17660
:103F0000017701214177FDF7E7F908B1FCF7A2FE3F
:103F100010BD000000640040A404002008B500BFEC
:103F2000002000900A48006840F40010084908602A
:103F30000846006800F40010009000BF00BF002297
:103F400011460C20FEF75CFB0C20FEF745FB08BD7C
:103F50003038024000B587B0142102A8FCF71AFAE5
:103F600000BF002001904F48006840F001004D491B
:103F700008600846006800F00100019000BF00BF23
:103F800000BF002001900846006840F0080008606B
:103F90000846006800F00800019000BF00BF00BFA5
:103FA000002001900846006840F0040008600846C0
:103FB000006800F00400019000BF00BF00BF0020B7
:103FC00001900846006840F020000860084600683C
:103FD00000F02000019000BF00BF00BF0020019052
:103FE0000846006840F0800008600846006800F05D
:103FF0008000019000BF00BF00BF00200190084674
:10400000006840F0400008600846006800F040008A
:10401000019000BF00BF00BF00200190084600686B
:1040200040F0100008600846006800F010000190A1
:1040300000BF00BF01224FF4FF711B48FDF706FED1
:104040000122D1021948FDF701FE0122D1021848D0
:10405000FDF7FCFD4FF4FF7002900120039000205B
:1040600004900220059002A90F48FDF7EBFC4FF4E5
:10407000006002900120039000200490022005902F
:1040800002A90A48FDF7DEFC4FF40060029001200F
:10409000039004900220059002A90548FDF7D2FC88
:1040A00007B000BD3038024000180240001C02403A
:1040B0000010024010B50B480B4908600B484860DF
:1040C000002109488160C1604FF4804101610021F5
:1040D00041618161C1610162FDF7C4FD08B1FCF776
:1040E000B9FD10BD00580040CC040020A08601009E
:1040F00000B587B0002003900490059006900190D1
:10410000029016481649086044F29F10486000214A
:104110001348816042F20F71C16000210161416169
:1041200080218161FEF7C2FE08B1FCF793FD4FF4D8
:104130008050039003A90A48FEF77CFF08B1FCF702
:1041400089FD00200190029001A90548FEF754FE68
:1041500008B1FCF77FFD07B000BD00000000014082
:104160002005002010B50C480C4908600C48486038
:104170004FF48051094881600021C1604FF4806193
:1041800001610C21416100218161C161FFF746FBA2
:1041900008B1FCF75FFD10BD004800406805002035
:1041A000A086010000BFFEE770B52DED028B04462E
:1041B0000025E1882289881A02F0DBFC41EC180B0B
:1041C0009FED170B53EC102B02F0EAFC06D2E088AF
:1041D00021894FF6FF72511A451818E0E1882289AB
:1041E000881A02F0C6FC41EC180B9FED0F0B53EC44
:1041F000102B02F00FFE07D220894042E1884FF6D3
:10420000FF72511A451A02E0E0882189451AE068D8
:104210002844E060E0882081BDEC028B70BD000086
:1042200000000000E0FFDFC000000000E0FFDF4012
:10423000C188C16090ED030AB8EEC00ADFED090A3B
:10424000B4EEE00AF1EE10FA04DDC168A1F57F4199
:10425000FF39C160C18801819FED030A80ED050A25
:104260007047000000FFFF46000000002DE9F0410C
:104270002DED088B04460E4615461F46DDF83880A6
:10428000E0882081E6802580678084F804802846C5
:1042900002F06FFC41EC1B0B9FED130B53EC102B4A
:1042A00002F0B2FA41EC180BE06802F062FC41EC5B
:1042B0001A0B53EC182B02F0F3F941EC190B02F036
:1042C000FBFBE0600A49E06890FBF1F201FB1200A1
:1042D000E060E068002802DAE0680844E060BDECD5
:1042E000088BBDE8F08100000000000000001440D1
:1042F00078F8010000BFFEE700B50146F0EE402A65
:10430000B0EE603AF0EE413A9FED0E1A33EE411AEC
:10431000F0EE410A9FED0B1A32EEC11AB0EE410ADF
:1043200001F1280000F0B4F8D1ED110AB0EE600AF6
:10433000F0EE630A084600F01DF891ED070A81EDE2
:10434000200A00BD003C7C4780ED000AC0ED010A58
:1043500080ED021AC0ED061A80ED082ADFED042A6E
:10436000C0ED092ADFED022AC0ED072A70470000E0
:104370000000000090ED031A80ED041A30EE601A80
:10438000B5EEC01AF1EE10FA02DB30EE601A03E06F
:1043900030EE601AB1EE411AD0ED091AB4EEE11A0E
:1043A000F1EE10FA04D29FED391A80ED031A03E002
:1043B00030EE601A80ED031A90ED031AD0ED041A66
:1043C00031EE611AD0ED021A21EE211A80ED071AA2
:1043D00090ED071AD0ED031A90ED002A01EE821A33
:1043E00080ED071A90ED051AD0ED031A90ED012A21
:1043F00001EE821A80ED051A90ED051AD0ED061A2D
:10440000F1EE611AB4EEE11AF1EE10FA04D890ED73
:10441000061AB1EE411A0DE090ED051AD0ED061A1C
:10442000B4EEE11AF1EE10FA02DB90ED061A01E0AB
:1044300090ED051A80ED051A90ED071AD0ED051ADA
:1044400031EE211A80ED071A90ED071AD0ED081A07
:10445000F1EE611AB4EEE11AF1EE10FA04D890ED23
:10446000081AB1EE411A0DE090ED071AD0ED081AC6
:10447000B4EEE11AF1EE10FA02DB90ED081A01E059
:1044800090ED071A80ED071A704700000000000049
:1044900090ED031A80ED041A30EE601AB5EEC01AE2
:1044A000F1EE10FA02DB30EE601A03E030EE601A33
:1044B000B1EE411AD0ED091AB4EEE11AF1EE10FA9C
:1044C00004D29FED4A1A80ED031A03E030EE601A21
:1044D00080ED031A90ED031ADFED451AB4EEE11AF0
:1044E000F1EE10FA08DD90ED031ADFED421A31EE1D
:1044F000611A80ED031A10E090ED031ADFED3E1A09
:10450000B4EEE11AF1EE10FA07D290ED031ADFEDE6
:10451000391A31EE211A80ED031A90ED031AD0ED0D
:10452000041A31EE611AD0ED021A21EE211A80ED43
:10453000071A90ED071AD0ED031A90ED002A01EE4C
:10454000821A80ED071A90ED051AD0ED031A90ED4E
:10455000012A01EE821A80ED051A90ED051AD0EDC0
:10456000061AF1EE611AB4EEE11AF1EE10FA04D86F
:1045700090ED061AB1EE411A0DE090ED051AD0ED5E
:10458000061AB4EEE11AF1EE10FA02DB90ED061A0B
:1045900001E090ED051A80ED051A90ED071AD0EDB7
:1045A000051A31EE211A80ED071A90ED071AD0EDA9
:1045B000081AF1EE611AB4EEE11AF1EE10FA04D81D
:1045C00090ED081AB1EE411A0DE090ED071AD0ED0A
:1045D000081AB4EEE11AF1EE10FA02DB90ED081AB7
:1045E00001E090ED071A80ED071A70470000000007
:1045F000003C7C47003CFC47003C7CC77047000007
:1046000010B52DED068BF0EE408AB0EE609AF0EE1C
:10461000419AB0EE618A5C48007820B9BFEE000A8A
:10462000BDEC068B10BD594890ED000AB5EEC00AEE
:10463000F1EE10FA18D2564890ED000A5548D0ED28
:10464000000A20EE200A5248D0ED010A514890EDB0
:10465000011A00EE810A4E48D0ED020A4D4890ED55
:10466000021A00EE810ADBE74A48C0ED008A80EDBD
:10467000019AC0ED029A484880ED008AB7EE000A20
:10468000B4EEC08AF1EE10FA61DD4449444801F00D
:1046900073FB444A4249444801F0DEFA434A424926
:1046A0003E4801F0D9FA424A3D49404801F0D4FA67
:1046B0004048D0ED000A404890ED001A80EE810A93
:1046C00090ED001AC0EE010AB7EE000A30EE800A43
:1046D000F7EE000A80EE801AF0EE41AA3749B0EEFC
:1046E0006A0A304801F016FB354A36492B4801F07A
:1046F000B3FA2948D0ED000A334890ED001A70EE65
:10470000C10AB0EE600A31492C4801F003FB304980
:10471000B7EE000A2B4801F0FDFA2A4A2B492C4833
:1047200001F07AFA2B4A1D49244801F095FA2A4AE9
:104730001D49284801F090FA2849B7EE000A1A48A6
:1047400001F0E8FA184A2449244801F0F9FA10481F
:1047500090ED000A0F48D0ED000A20EE200A0C4828
:10476000D0ED010A0B4890ED011A00EE810A0848CD
:10477000D0ED020A074890ED021AB0EE40AA00EE12
:1047800081AAB0EE4A0A4BE710000020C8000020C2
:10479000540100206C010020380000207800002027
:1047A00060000020700000205000002080000020E9
:1047B00088000020400000203C000020580000201D
:1047C00090000020480000204400002098000020B5
:1047D000A0000020B0000020B8000020A8000020A9
:1047E00010B501203D4908709FED3D0A3D4880ED20
:1047F000000A9FED3D0A80ED010A9FED3C0A80ED25
:10480000020A9FED3B0A3B4880ED000A9FED380A03
:1048100080ED040A9FED380A80ED080A9FED370A03
:10482000374880ED000A2F4B01220321354801F063
:104830000FFA304B03221146334801F009FA334B8B
:1048400001220321324801F003FA324B01220321F5
:10485000314801F0FDF9314B01221146304801F099
:10486000F7F9304B012203212F4801F0F1F92F4BCA
:10487000032201212E4801F0EBF92E4B03220121E6
:104880002D4801F0E5F92D4B012211462C4801F08D
:10489000DFF92C4B012211462B4801F0D9F92B4BA3
:1048A000012203212A4801F0D3F92A4B01220321D6
:1048B000294801F0CDF9294B03221146284801F07F
:1048C000C7F9284B03221146274801F0C1F9274BAD
:1048D00003221146264801F0BBF910BD100000204C
:1048E00045B6243454010020C1D43A3414AE473FB5
:1048F000DC2434271400002017B7D13772F97F3F2A
:104900003C000020480000205000002060010020F2
:10491000580000206C0100206000002038000020BA
:104920006800002078010020700000208401002031
:10493000780000209001002080000020400000202E
:104940008800002044000020900000209C010020EE
:1049500098000020A8010020A0000020B401002041
:10496000A8000020D8010020B0000020FC01002099
:10497000B80000209FED0D0A0D4880ED0E0A9FED56
:104980000D0A80ED0F0AB7EE000A80ED100A9FEDC8
:104990000A0A80ED110A0020054981F83400B1EEC1
:1049A000040A084680ED020A70470000C1D43A3478
:1049B0000C010020335B2534503C23361948B0F9F4
:1049C000000018490979401A00EE900AF8EEE00A52
:1049D000B0EE600AB5EEC00AF1EE10FA10DD114833
:1049E000007900EE900AF8EE600A9FED0F1A40EE93
:1049F000410AFCEEE00A10EE900A0A4908710FE045
:104A00000848007900EE900AF8EE600A9FED071A58
:104A100070EE810AFCEEE00A10EE900A014908717E
:104A2000704700000C0100206F12833A0AD7233C24
:104A3000704710B5FDF75CFD10BD000000B593B0E8
:104A4000302107A8FBF7A6FC142102A8FBF7A2FC63
:104A500000BF002001902448006840F080502249A7
:104A600008600846006800F08050019000BF00BF59
:104A700000BF002001901D48006840F480401B49A1
:104A800008600846006800F48040019000BF00BF45
:104A9000012007900004089002200D9041050E911E
:104AA00006210F91A8211091022111910421129148
:104AB00007A8FDF737FF08B1FCF7CCF80F200290EC
:104AC00002200390002004904FF4A05005904FF472
:104AD00080500690052102A8FDF7E4FD08B1FCF71F
:104AE000B9F813B000BD000040380240007000402B
:104AF0000348006840F470000149086070470000F6
:104B000088ED00E010B50248FEF71BFB10BD000069
:104B10002005002010B50248FEF713FB10BD000071
:104B20002005002010B50248FEF70BFB10BD000069
:104B30002005002010B50248FEF703FB10BD000061
:104B40002005002010B502682D4B98420ED0B0F120
:104B5000804F0BD02B4B984208D02B4B984205D05E
:104B60002A4B984202D02A4B984203D122F070027D
:104B70004B681A43224B984220D0B0F1804F1DD091
:104B8000204B98421AD0204B984217D01F4B984286
:104B900014D01F4B984211D01E4B98420ED01E4B82
:104BA00098420BD01D4B984208D01D4B984205D01F
:104BB0001C4B984202D01C4B984203D122F4407205
:104BC000CB681A4322F080034C6943EA0402026076
:104BD0008B68C3620B688362094B984202D00C4B0E
:104BE000984201D10B69036301234361036903F018
:104BF00001031BB1036923F00103036110BD000031
:104C0000000001400004004000080040000C00408B
:104C100000040140004001400044014000480140C0
:104C200000180040001C00400020004030B50C4639
:104C3000816821F47F4142EA0325254329438160AD
:104C400030BD0A46816821F0700142F00703194324
:104C50008160704730B50B461446026A056A25F03C
:104C600001050562816921F0F00141EA041122F099
:104C70000A021A438161026230BD30B50B46144608
:104C8000026A056A25F010050562816921F4704108
:104C900041EA043122F0A00242EA03128161026279
:104CA00030BD70B50546AC6B0020E085E084204641
:104CB000FEF73EFC70BD70B506460025B46B20685B
:104CC0004069C0F3C01594F84100212805D125B1F1
:104CD0000020E084204600F0C8F820684069C0F356
:104CE000801594F84200222805D125B10020E085E6
:104CF000204600F074F8606C40F0100060642046BC
:104D0000FEF716FC70BD70B50546AC6B28680068F0
:104D100000F48070002842D1E08500BF00BF216808
:104D20000C3151E8001F21F4807021680C3141E8FA
:104D30000002002AF3D100BF00BF00BF2168143178
:104D400051E8001F21F001002168143141E8000200
:104D5000002AF3D100BF00BF00BF2168143151E821
:104D6000001F21F040002168143141E80002002AB0
:104D7000F3D100BF202084F84200206B01280ED11F
:104D800000BF00BF21680C3151E8001F21F0100066
:104D900021680C3141E80002002AF3D100BF002055
:104DA0006063206B012804D1A18D2046FEF7F4FA40
:104DB00002E02046FEF7DEFD70BD70B50546AC6B27
:104DC00001206063206B012805D1A08D4108204699
:104DD000FEF7E2FA02E02046FEF7CDFD70BD00BF0F
:104DE00000BF02680C3252E8002F22F49071026872
:104DF0000C3242E80013002BF3D100BF00BF00BF0C
:104E00000268143252E8002F22F0010102681432C5
:104E100042E80013002BF3D100BF016B01290ED132
:104E200000BF00BF02680C3252E8002F22F01001D0
:104E300002680C3242E80013002BF3D100BF20219E
:104E400080F8421000210163704710B504462068C5
:104E5000C06820F040002168C860202084F841002C
:104E60002046FEF789FD002010BD00BF00BF02688C
:104E70000C3252E8002F22F0C00102680C3242E8E6
:104E80000013002BF3D100BF202180F841107047A0
:104E9000F8B5044694F84200222875D1A068B0F510
:104EA000805F0CD1206950B90025A66A206840684F
:104EB000C0F308003080A06A801CA06215E0A56ADB
:104EC0000026A068B0F5805F03D0A06828B92069EB
:104ED00018B920684068287004E02068406800F035
:104EE0007F002870A06A401CA062E08D401E80B246
:104EF000E085002846D12068C06820F020002168A5
:104F0000C8602068C06820F480702168C86020688C
:104F1000406920F0010021684861202084F84200A7
:104F200000206063206B012826D10020206300BF91
:104F300000BF21680C3151E8001F21F010002168EA
:104F40000C3141E80002002AF3D100BF206800685C
:104F500000F0100010280AD100BF00200090206847
:104F60000068009020684068009000BF00BFA18DDD
:104F70002046FEF711FA02E02046FEF7FBFC002077
:104F8000F8BD01E00020FBE70220F9E72DE9F84F2A
:104F900004462068006920F44050E1680843216815
:104FA00008612169A068084361690843E169084311
:104FB00000902068C06849F20C618843009908435A
:104FC0002168C8602068406920F44070A1690843E6
:104FD0002168486176492068884203D07549206875
:104FE000884203D1FDF736FC814602E0FDF722FC42
:104FF0008146E069B0F5004F6CD102206168A0FBEA
:10500000015003461920A9FB007001462A46384684
:10501000FBF732F96421B0FBF1F04FEA001A0220ED
:105020006168A0FB01510B461920A9FB00712A46BB
:105030003846FBF721F9834602206168A0FB015046
:1050400003461920A9FB00712A463846FBF714F9DC
:105050006421B0FBF1F000EBC00101EB0010ABEB01
:105060008000322101EBC0006421B0FBF1F000F0C0
:10507000F8000AEB400A02206168A0FB01500346D9
:105080001920A9FB007001462A463846FBF7F4F8C0
:10509000834602206168A0FB015003461920A9FB4A
:1050A00000712A463846FBF7E7F86421B0FBF1F0BF
:1050B00000EBC00101EB0010ABEB8000322101EBF3
:1050C000C0006421B0FBF1F000F0070050442168FB
:1050D00088606AE004206168A0FB01500346192043
:1050E000A9FB007001462A463846FBF7C5F8824600
:1050F00004206168A0FB015003461920A9FB007041
:1051000001462A463846FBF7B7F86421B0FBF1F0B8
:1051100000EBC00101EB0010AAEB8000322101EB93
:1051200000106421B0FBF1F000F0F00A0420616887
:10513000A0FB017003461920A9FB00513A462846FE
:10514000FBF79AF86421B0FBF1F00AEB001A042097
:105150006168A0FB01510B461920A9FB00712A468A
:105160003846FBF789F8834604206168A0FB0150AC
:1051700003461920A9FB007001462A463846FBF772
:105180007BF86421B0FBF1F000EBC00101EB0010F3
:10519000ABEB8000322101EB00106421B0FBF1F099
:1051A00000F00F00504421688860BDE8F88F0000CF
:1051B000001001400014014077B581B00446154647
:1051C0000298A062A58500206064222084F8420035
:1051D0002848E16BC8632848E16B08642748E16B05
:1051E000C8640020E16B086502AE32682368191DAF
:1051F0002B46E06BFCF7C8FB00BF00200090206846
:105200000068009020684068009000BF00BF2069DF
:1052100070B100BF00BF21680C3151E8001F41F49C
:10522000807021680C3141E80002002AF3D100BFF0
:1052300000BF00BF2168143151E8001F41F0010098
:105240002168143141E80002002AF3D100BF00BFF9
:1052500000BF2168143151E8001F41F0400021686F
:10526000143141E80002002AF3D100BF002004B04D
:1052700070BD0000074D0008BB4D0008B74C00088A
:10528000014691F84100212828D18868B0F5805F57
:105290000BD1086948B90A6A1088C0F308000B6886
:1052A0005860086A801C086205E00B6A581C086296
:1052B00018780B685860C88C401E80B2C88458B9F2
:1052C0000868C06820F080000B68D8600868C06873
:1052D00040F040000B68D860002070470220FCE7D7
:1052E00010B50248FEF726F910BD00006805002041
:1052F0002DE9F04188B080460E4614461D46002038
:10530000039002960490059008200690A4208DF842
:10531000000000208DF80100E8B28DF80200280A94
:105320008DF80300E0B28DF80400200A8DF8050026
:10533000200C8DF80600200E8DF8070001236A4628
:1053400002A90348FBF79EFC074608B0BDE8F081C0
:10535000A40400202DE9F04788B082460E4614468A
:105360001D46DDE910780020039002960490059018
:1053700008200690200A8DF80000E0B28DF80100A8
:10538000280A8DF80200E8B28DF80300380A8DF87B
:105390000400F8B28DF805004FEA18208DF80600D9
:1053A00008F0FF008DF8070001236A4602A90348B0
:1053B000FBF768FC814608B0BDE8F087A404002034
:1053C00000BFFEE730B597B004461448007838B9FE
:1053D00001A800F0F9F9054601A800F049FA00BF5C
:1053E0000F48D0ED010AB0EE600ADFED0E0A00F0C2
:1053F000B7FB84ED0E0A0A48D0ED000AB0EE600A51
:10540000DFED080A00F0ACFB84ED0F0A044890EDD4
:10541000020A84ED100A17B030BD00001000002011
:105420005401002077CC2B3280ED000A7047000039
:10543000F0B52DED0A8B85B005460F4614461E4685
:105440009DED14CA2846FFF7BDFFD5ED020AB0EE68
:10545000600A00EE907AF8EE600A05F10C00FEF7A3
:1054600089FFD5ED0A0AB8EE4C1A71EE600AB0EE6B
:10547000600AF1EE040A00F073FBF0EE409ABCEE15
:10548000E90A10EE100AA871002001900290039022
:1054900004909FEDCA0AF0EE40CA00BF48E095EDC7
:1054A000110A04EB8001D1ED000A60EE200A00EB46
:1054B000400136F9311000EE101AB8EEC00A20EEA5
:1054C000800AD5ED0E0A04EB800191ED001A60EE22
:1054D000810A04EB800191ED001A00EE810A95ED3E
:1054E0000F1A00EB400136F9311000EE901AF8EE79
:1054F000E00A21EE201A00EB400136F9311000EEEF
:10550000901AF8EEE00A01EE200AD5ED100A30EE0E
:10551000200A01A901EB800181ED000A01A901EB3C
:10552000800191ED000A30EE2C0AF0EE40CA401CDA
:105530000428B4DBF4EEE9CAF1EE10FA7DDB95F84D
:105540003400012879D19FED9D0AB0EE408A9FED8D
:105550009B0AF0EE408A9FED990AB0EE409A9FEDCB
:10556000970AB0EE40AA002051E001A901EB8001AA
:1055700091ED000AB5EEC00AF1EE10FA00D244E057
:1055800095ED0E0A04EB8001D1ED000A60EE200AD1
:1055900004EB800191ED001AB0EE680A00EE810A7A
:1055A000F0EE408A95ED110A04EB8001D1ED000A7E
:1055B00060EE200A00EB400136F9311000EE101ABF
:1055C000B8EEC01AB0EE490A00EE810AB0EE409A79
:1055D000D5ED0F0A00EB400136F9311000EE101A3C
:1055E000B8EEC00A60EE800A00EB400136F93110D7
:1055F00000EE101AB8EEC01A95ED100A00EE810AFE
:1056000030EE0A0AB0EE40AA00BF411CC8B2012821
:10561000ABDB3AEE690AB0EE40AA29EE090AF1EED8
:10562000000A68EEA00AF0EE40AA40EECAAAF5EE23
:10563000C0AAF1EE10FA06D200E0BCE09FED5F0ACE
:10564000B0EE408A42E0B0EE6A0A00F012F9F1EEE4
:10565000490A30EE200AF0EE000A68EEA00A80EE59
:10566000201AB0EE41BAB0EE6A0A00F002F9F1EE8B
:10567000490A30EEC00AF0EE000A68EEA00A80EE99
:10568000201AF0EE41BAB5EEC0BAF1EE10FA08DD1C
:10569000B7EE000AB4EEC0BAF1EE10FA01D2B0EEE5
:1056A0004B8AF5EEC0BAF1EE10FA0EDDB7EE000A45
:1056B000F4EEC0BAF1EE10FA07D2F0EE6B0AB0EEDB
:1056C000480A00F04DFAB0EE408A00BFB5EEC08A3D
:1056D000F1EE10FA6EDBB7EE000AB4EEC08AF1EE1E
:1056E00010FA67D200205FE001A901EB800191ED83
:1056F000000AB5EEC00AF1EE10FA24D204EB8001E4
:1057000091ED000ADFED2E0AB4EEE00AF1EE10FA98
:1057100002D89FED2B0A11E004EB800191ED000A05
:10572000DFED280AB4EEE00AF1EE10FA02DB9FED9D
:10573000250A03E004EB800191ED000A04EB8001EF
:1057400081ED000A2EE004EB800191ED000A20EECD
:10575000080A04EB800181ED000A04EB800191ED61
:10576000000ADFED170AB4EEE00AF1EE10FA02D8F3
:105770009FED130A11E004EB800191ED000ADFEDCB
:10578000110AB4EEE00AF1EE10FA02DB9FED0D0A09
:1057900003E004EB800191ED000A04EB800181ED50
:1057A000000A00BF411CC8B204289DDB05B0BDEC57
:1057B0000A8BF0BD00BF00BFF8E70000000000004A
:1057C00000007AC600007A4610B504469FED1F0A15
:1057D00084ED000A0020A080A0719FED1D0A84EDD9
:1057E000020A012084F834009FED1A0A84ED0E0AA3
:1057F0009FED190A84ED0F0AB7EE000A84ED100A36
:105800009FED160A84ED110A9FED150A84ED120A28
:105810009FED140A84ED130AB7EE000A84ED140A12
:105820009FED110A84ED150A9FED102ADFED071A8E
:105830009FED061ADFED050AB2EE000A04F10C0036
:10584000FEF782FDFEF7CCFF204610BD00000000F1
:1058500000004842C1D43A34335B2534503C2336EF
:1058600017B7D1378232E03240DA29370000C84218
:10587000704710B52DED028BB0EE408AB0EE480AAD
:1058800000F092F9BDEC028B10BD4100080218BF78
:1058900004200A0E18BF40F001004FF07F4232EAA8
:1058A000010108BF40F00200012808BF0520704731
:1058B00002480068C0F30220704700000CED00E0D1
:1058C00010B5002804DB0A07130E054A135406E03E
:1058D0000A07140E034A00F00F031B1FD45410BD17
:1058E00000E400E018ED00E010B54FF00E412DEDA2
:1058F000028BB0EE408A18EE100A01EB4001B1F1C4
:10590000145F5CD24FF0FE41B1EB400F24BF9FED1E
:10591000400AF0EE400A12D210F0004F19BFDFED3E
:105920003D0A9FED3D0ADFED3D0A9FED3D0AFFEE8A
:10593000001A81EE881AB0EE418A18EE100A4FF074
:10594000FC41B1EB400F1BD210F0004FDFED351AD8
:105950009FED352A1DBFBEEE001A70EEE10A30EE53
:10596000420AB6EE001A04BF70EEA10A30EE020A37
:1059700038EE412AF7EE001A48EE011A82EE218A2B
:10598000DFED2A1A9FED2A2A28EE081A01EE212AB5
:10599000DFED281A41EE021A9FED272A01EE212A97
:1059A000DFED261A41EE021A28EE011A01EE210A55
:1059B00030EE080ABDEC028B30EE200A10BD4FF02D
:1059C000E441B1EB400F0CD918EE100AFFF75DFF70
:1059D000042808BF00F008F9B0EE480ABDEC028BBD
:1059E00010BD4FF07F41B1EB400F07D2B0EE480A37
:1059F000BDEC028BBDE8104000F0F3B810F0004F92
:105A000014BF9FED0F0A9FED0F0ABDEC028B10BD76
:105A1000000000000000C9BF22AAFDB90000C93F74
:105A200022AAFD390060ED3EC30ACE372DAD65BD1B
:105A30008FB8D53D0FB511BE61C84C3EA8AAAABE0D
:105A4000DB0FC9BFDB0FC93F2DE9F0412DED020B84
:105A50009FED3D0B2DED028B9FED3D8BDDE902545B
:105A6000C4F30A50A0F2FF36142E37DA002E18DAEB
:105A700053EC102B9DED020B51EC100B00F010FEBF
:105A800053EC182B01F0C6F957D2002CBCBF4FF0D5
:105A90000044002551DB54EA050018BF2E4C1BD1F1
:105AA0004BE02E4820FA06F704EA070028431FD0EF
:105AB00053EC102B9DED020B51EC100B00F0F0FDA0
:105AC00053EC182B01F0A6F937D2002C03DD4FF46C
:105AD0008010F0400444BC4300252EE0332E07DC48
